:020000040800F2
:1000000000000220E91E0008491D0008511D0008DB
:10001000591D0008611D0008691D0008000000004E
:10002000000000000000000000000000711D00083A
:100030007F1D0008000000008D1D00089B1D0008AA
:10004000391F0008391F0008391F0008391F000830
:10005000391F0008391F0008391F0008391F000820
:10006000391F0008391F0008391F0008391F000810
:10007000391F0008391F0008391F0008391F000800
:10008000391F0008391F0008391F0008391F0008F0
:10009000391F0008391F0008391F0008391F0008E0
:1000A000391F0008391F0008391F0008391F0008D0
:1000B000391F0008391F0008391F0008391F0008C0
:1000C000391F0008391F0008391F0008391F0008B0
:1000D000391F0008391F0008391F0008391F0008A0
:1000E000391F0008391F0008391F0008391F000890
:1000F000391F0008391F0008391F0008391F000880
:10010000391F0008391F0008391F0008391F00086F
:10011000391F0008391F0008391F0008B9560008A8
:10012000391F0008391F0008A71D0008391F0008E3
:10013000391F0008391F0008391F0008391F00083F
:10014000391F0008391F0008391F0008391F00082F
:10015000391F0008391F0008391F0008391F00081F
:10016000391F0008391F0008391F0008391F00080F
:10017000391F0008391F0008391F0008000000005F
:08018000391F0008391F0008B7
:1001900010B5054C237833B9044B13B10448AFF3C1
:1001A00000800123237010BD00010020000000002A
:1001B0000474000808B5034B1BB103490348AFF3AF
:1001C000008008BD00000000040100200474000845
:1001D00001F0FF01102A2BDB10F0070F08D010F8F8
:1001E000013B013A8B422DD010F0070F42B3F6D1FC
:1001F000F0B441EA012141EA014122F007047FF015
:1002000000070023F0E80256083C85EA010586EA6B
:10021000010685FA47F5A3FA87F586FA47F6A5FAA7
:1002200087F68EB9EED1F0BC01F0FF0102F00702B3
:1002300032B110F8013B013A83EA010313B1F8D15E
:100240000020704701387047002D06BF354603383F
:10025000073815F0010F07D1013015F4807F02BF78
:10026000013015F4C03F0130F0BC0138704700BFC9
:1002700053B94AB9002908BF00281CBF4FF0FF310D
:100280004FF0FF3000F06AB9ADF1080C6DE904CE13
:1002900000F006F8DDF804E0DDE9022304B0704761
:1002A0002DE9F047089D0C46002B4ED194468C4515
:1002B0008646B2FA82F262D94AB1C2F12003914075
:1002C00020FA03F30CFA02FC194300FA02FE4FEA8B
:1002D0001C471FFA8CF6B1FBF7F44FEA1E4307FBED
:1002E000141143EA014304FB06F199420AD91CEBBD
:1002F000030304F1FF3080F01281994240F20F8134
:10030000023C6344591A1FFA8EF3B1FBF7F007FB66
:10031000101143EA014300FB06F69E420AD91CEB8A
:10032000030300F1FF3180F0FC809E4240F2F9802F
:10033000634402389B1B40EA044000211DB1D340B6
:100340000022C5E90032BDE8F0878B4205D90DB126
:10035000C5E9000100210846F5E7B3FA83F1002959
:1003600046D1A34202D39042C0F0F080861A64EBDB
:1003700003030120002DE6D0C5E90063E3E7002A6E
:1003800040F09080A1EB0C044FEA1C481FFA8CF758
:100390000121B4FBF8F64FEA1E4308FB164443EA7A
:1003A000044307FB06F0984208D91CEB030306F14F
:1003B000FF3402D2984200F2CD8026461C1A1FFA62
:1003C0008EF3B4FBF8F008FB104443EA044300FB4F
:1003D00007F79F4208D91CEB030300F1FF3402D258
:1003E0009F4200F2B0802046DB1B40EA0640A5E7B2
:1003F000C1F120068B4022FA06F71F4320FA06FCC3
:1004000004FA01F343EA0C03F44000FA01F8380C53
:100410004FEA1349B4FBF0FE1FFA87FC00FB1E44B1
:1004200049EA04440EFB0CF9A14502FA01F20AD98B
:100430003C190EF1FF3A80F08480A14540F28180A2
:10044000AEF1020E3C44A4EB09041FFA83F9B4FB9D
:10045000F0F300FB134449EA044403FB0CFCA445FD
:1004600007D93C1903F1FF3067D2A44565D9023B97
:100470003C4443EA0E40A0FB0293A4EB0C049C42D4
:10048000CE469C4651D34ED055B1B8EB0E0364EB2B
:100490000C0404FA06F6CB401E43CC40C5E90064C8
:1004A000002150E7C2F1200320FA03F10CFA02FC0C
:1004B00024FA03F394400C434FEA1C4800FA02FE6E
:1004C0001FFA8CF7B3FBF8F008FB1031230C43EA5A
:1004D000014300FB07F1994208D91CEB030300F12B
:1004E000FF362CD299422AD9023863445B1AA4B24F
:1004F000B3FBF8F108FB113344EA034401FB07F3B3
:10050000A34208D91CEB040401F1FF3613D2A34225
:1005100011D902396444E41A41EA004139E704463A
:10052000F0E6084606E7C845AED2B9EB020E63EB2B
:10053000070C0138A8E73146EDE7034699E7304656
:10054000D4E7D6467FE7634402384DE706462346A4
:1005500008460FE7023E634430E700BF704700BF24
:1005600080B400AFBFF34F8F00BF064BDB6803F4CE
:10057000E0620449044B1343CB60BFF34F8F00BFCD
:1005800000BFFDE700ED00E00400FA0580B483B091
:1005900000AF786039607B681A693B6813403A683D
:1005A0009A420CBF01230023DBB218460C37BD462C
:1005B0005DF8047B704780B483B000AF7860396029
:1005C0007B683A689A6100BF0C37BD465DF8047BD2
:1005D000704780B483B000AF786039603B681A041C
:1005E0007B689A6100BF0C37BD465DF8047B70479D
:1005F00080B483B000AF78607B684AF6AA221A60A4
:1006000000BF0C37BD465DF8047B704780B5CAB0AB
:1006100000AF07F59473A3F58E73186007F5947314
:10062000A3F59073196007F59473A3F592731A609C
:1006300007F59473A3F5927207F59473A3F590737D
:1006400012680021186805F041FC002004F06EF9E2
:1006500004F07CF9C7F81801D7F8183193F848303E
:1006600019462E4804F080FCD7F8183193F848302A
:10067000002B04D14FF48033C7F8243103E04FF44A
:100680008813C7F82431D7F8243107F110014FF44B
:100690008072184605F0D2FA07F110031B68C7F8FC
:1006A0001431D7F81431002B00DAFF331B12013359
:1006B000C7F810311A4BC7F81C310023C7F8203196
:1006C00020E007F110034FF480721946D7F81C019F
:1006D00004F02AFF4FF48072D7F81C11114804F07F
:1006E00043FC07F110032021184604F07DFCD7F8E5
:1006F0001C3103F58073C7F81C31D7F82031013362
:10070000C7F82031D7F82021D7F810319A42D8DB2A
:1007100000BF00BF07F59477BD4680BD1C7400087C
:10072000000001083874000880B500AF074804F0E5
:100730001BFC4FF47A7003F095FB054804F096F922
:10074000044805F053F800BF80BD00BF4C7400089A
:1007500077734F450000010880B5CAB000AF674805
:1007600004F002FC4FF47A7003F07CFB6448FFF75E
:100770003FFF04F0EBF8C7F81001D7F8103193F8F9
:100780004830002B04D14FF48033C7F8243103E004
:100790004FF48813C7F824313B1D4FF4807219467B
:1007A000D7F8240105F04AFA3B1D1B68C7F8203131
:1007B000D7F8103193F848301946D7F82031D7F8D8
:1007C0002421504804F0D0FBD7F8243103F580737E
:1007D000C7F82431042004F085FE052004F082FED1
:1007E000062004F07FFE072004F07CFE322003F098
:1007F00039FBD7F82031002B00DAFF331B1201330D
:10080000C7F80C31404BC7F81C310023C7F818312A
:1008100057E03B48FFF7ECFED7F82031002B57DDBF
:100820004FF48073C7F81431D7F81421D7F820316A
:100830009A4203DDD7F82031C7F81431D7F81431C4
:10084000D7F81C21D7F82411304804F08DFB3B1D4C
:10085000D7F814211946D7F8240105F0EFF93B1D0C
:100860002021184604F0C0FBD7F81431C7F808312E
:100870003B1DD7F808211946D7F81C0104F088FE63
:100880000346002B03DA224804F06EFB32E0D7F86F
:100890002021D7F81431D31AC7F82031D7F81431F2
:1008A000D7F824211344C7F82431D7F81431D7F8E6
:1008B0001C211344C7F81C31D7F818310133C7F88D
:1008C0001831D7F81821D7F80C319A42A1DB00E093
:1008D00000BF104804F0CAF84FF47A7003F0C2FA6F
:1008E0000123C7F80431D7F8043183F3138800BF1C
:1008F000FFF736FE07F59477BD4680BD5C740008AF
:10090000003000406C740008000001088474000886
:10091000B0740008726E4F45B0B582B000AF2B487E
:1009200005F078FD2A4805F075FD2A4805F072FDAE
:10093000294805F06FFD294805F06CFD284805F0B1
:1009400069FD284805F066FD274805F063FD274846
:1009500005F060FD264805F05DFD264805F05AFDCE
:1009600000237B60244B1B680133234A1360224B16
:100970001B6800221C46154622462B461F4805F0E0
:100980001FFB012003F06EFA1D48FFF731FE04F053
:100990009FFB04F0DFFA38607B6801337B603B68C3
:1009A0005B68002B0DDD7B68B3F5FA7F03D93B68EC
:1009B0005B680B2B07DD00237B60386803F046FF84
:1009C000D0E700BFCEE700BFCCE700BFBC74000893
:1009D000E0740008F8740008107500082875000815
:1009E0004075000858750008707500088875000883
:1009F000A0750008B87500081C0100202001002027
:100A00000030004080B582B000AF78600C4B1B789E
:100A1000002B08D14FF480410A48FFF7CCFD084B6A
:100A200001221A7007E04FF480410648FFF7D1FD1C
:100A3000034B00221A7000BF0837BD4680BD00BFBF
:100A4000500100200004024080B588B004AF4FF48C
:100A500080415048FFF7BDFD04F040FA4E4B029331
:100A6000002301934FF0FF3300934FF47A724FF05D
:100A700000030021494805F062FA484805F093FA5E
:100A8000474805F0C7FC474805F0C4FC464805F058
:100A9000C1FC464805F0BEFC454805F0BBFC454896
:100AA00005F0B8FC404805F0B5FC434805F0B2FC41
:100AB00005F000F8414804F057FA04F003F8404804
:100AC00004F052FA4FF47A7003F0CCF903F03EFFD1
:100AD00078607B685B68FB600023BB6010E039488E
:100AE00004F042FA04213848FFF750FD0346002B7A
:100AF0000AD14FF4FA7003F0B5F9BB680133BB605B
:100B0000BB68052BEBDD00E000BFBB68052B01DDFA
:100B10002E4BFB60F86803F0A9FF2D4804F024FA7F
:100B200003F06EFD2B4803F0C3FD2B4803F0C0FD1E
:100B30002A4803F0BDFD2A4803F0BAFD294803F016
:100B4000B7FD294803F0B4FD284803F0B1FD28485B
:100B500003F0AEFD274803F0ABFD274803F0A8FDE6
:100B60002649274803F070FDFB68264A934206D0C9
:100B7000FB68254A934205D1FFF7D6FD05E0FFF754
:100B8000EBFD02E0FFF7C8FE00BF0A2003F06AF9A0
:100B9000FBE700BF00040240050A00082001002016
:100BA000D0750008D4750008F87500081C76000898
:100BB000407600086476000888760008AC76000865
:100BC000B8760008C87600080010024074694F45E6
:100BD000CC7600086A61707062696E3062696E314D
:100BE00062696E326461743164617432636F6E661F
:100BF000666C61737265737463616E630D060008E1
:100C00006661707061664F45726E4F4580B400AF8B
:100C1000044BDB681B0A03F007031846BD465DF86A
:100C2000047B704700ED00E080B483B000AF034662
:100C3000FB7197F90730002B0BDBFB7903F01F02E8
:100C4000074997F907305B09012000FA02F241F8E1
:100C5000232000BF0C37BD465DF8047B704700BF02
:100C600000E100E080B483B000AF03463960FB715F
:100C700097F90730002B0ADB3B68DAB20C4997F989
:100C800007301201D2B20B4483F800230AE03B681C
:100C9000DAB20849FB7903F00F03043B1201D2B228
:100CA0000B441A7600BF0C37BD465DF8047B7047D5
:100CB00000E100E000ED00E080B489B000AFF86032
:100CC000B9607A60FB6803F00703FB61FB69C3F15D
:100CD0000703042B28BF0423BB61FB690433062BE5
:100CE00002D9FB69033B00E000237B614FF0FF3238
:100CF000BB6902FA03F3DA43BB681A407B699A4086
:100D00004FF0FF317B6901FA03F3D9437B680B4055
:100D1000134318462437BD465DF8047B7047000036
:100D200080B485B000AFF860B9607A600D4ABB68E6
:100D300013441B781A46FB6813441B6823F0C00257
:100D40000849BB680B441B781946FB680B441946DD
:100D50007B6813430B6000BF1437BD465DF8047B0E
:100D6000704700BFA87C000880B485B000AFF86071
:100D7000B9607A600D4ABB6813441B781A46FB6859
:100D800013441B6823F490720849BB680B441B781A
:100D90001946FB680B4419467B6813430B6000BF80
:100DA0001437BD465DF8047B704700BFA87C00087F
:100DB00080B485B000AFF860B9607A600D4ABB6856
:100DC00013441B781A46FB6813441B6823F4007213
:100DD0000849BB680B441B781946FB680B4419464D
:100DE0007B6813430B6000BF1437BD465DF8047B7E
:100DF000704700BFA87C000880B485B000AFF860E1
:100E0000B9607A600D4ABB6813441B781A46FB68C8
:100E100013441B6823F480620849BB680B441B78A9
:100E20001946FB680B4419467B6813430B6000BFEF
:100E30001437BD465DF8047B704700BFA87C0008EE
:100E400080B485B000AFF860B9607A600D4ABB68C5
:100E500013441B781A46FB6813441B6823F4C052E2
:100E60000849BB680B441B781946FB680B441946BC
:100E70007B6813430B6000BF1437BD465DF8047BED
:100E8000704700BFA87C000880B485B000AFF86050
:100E9000B9607A600D4ABB6813441B781A46FB6838
:100EA00013441B6823F4C0420849BB680B441B78F9
:100EB0001946FB680B4419467B6813430B6000BF5F
:100EC0001437BD465DF8047B704700BFA87C00085E
:100ED00080B485B000AFF860B9607A600D4ABB6835
:100EE00013441B781A46FB6813441B6823F44032F2
:100EF0000849BB680B441B781946FB680B4419462C
:100F00007B6813430B6000BF1437BD465DF8047B5C
:100F1000704700BFA87C000880B485B000AFF860BF
:100F2000B9607A600D4ABB6813441B781A46FB68A7
:100F300013441B6823F060620849BB680B441B78AC
:100F40001946FB680B4419467B6813430B6000BFCE
:100F50001437BD465DF8047B704700BFA87C0008CD
:100F600080B483B000AF786039600C4A3B681344AA
:100F70001B781A467B6813445B6908493A680A443F
:100F8000127811467A680A4423F00403536100BFC3
:100F90000C37BD465DF8047B704700BFA87C000895
:100FA00080B483B000AF78607B684CF6CC421A60A6
:100FB00000BF0C37BD465DF8047B704780B483B03A
:100FC00000AF78607B684AF6AA221A6000BF0C372F
:100FD000BD465DF8047B704780B483B000AF786095
:100FE0007B6845F255521A6000BF0C37BD465DF86C
:100FF000047B704780B483B000AF786039603B6891
:1010000003F007027B685A6000BF0C37BD465DF8ED
:10101000047B704780B483B000AF786039603B6870
:10102000C3F30B027B689A6000BF0C37BD465DF8C6
:10103000047B704780B483B000AF78607B68DB6866
:1010400003F00303002B01D1012300E00023184625
:101050000C37BD465DF8047B7047000080B400AFDC
:10106000054B1B68044A43F48033136000BFBD4640
:101070005DF8047B704700BF0038024080B400AFC9
:10108000074B1B6803F40033B3F5003F0CBF01238B
:101090000023DBB21846BD465DF8047B704700BFF5
:1010A0000038024080B400AF054B1B6F044A43F088
:1010B0000103136700BFBD465DF8047B704700BFA6
:1010C0000038024080B400AF064B1B6F03F00203F0
:1010D000022B0CBF01230023DBB21846BD465DF88E
:1010E000047B70470038024080B400AF054B5B6F53
:1010F000044A43F00103536700BFBD465DF8047B1B
:10110000704700BF0038024080B400AF064B5B6FF1
:1011100003F00203022B0CBF01230023DBB21846AD
:10112000BD465DF8047B70470038024080B483B050
:1011300000AF7860064B9B6823F0030204497B688C
:1011400013438B6000BF0C37BD465DF8047B7047CE
:101150000038024080B400AF044B9B6803F00C03DE
:101160001846BD465DF8047B704700BF003802405A
:1011700080B483B000AF7860064B9B6823F0F00228
:1011800004497B6813438B6000BF0C37BD465DF894
:10119000047B70470038024080B483B000AF7860B1
:1011A000064B9B6823F4E05204497B6813438B6031
:1011B00000BF0C37BD465DF8047B70470038024025
:1011C00080B483B000AF7860064B9B6823F4604224
:1011D00004497B6813438B6000BF0C37BD465DF844
:1011E000047B70470038024080B483B000AF786061
:1011F000064B1B6F23F4407204497B6813430B6753
:1012000000BF0C37BD465DF8047B704700380240D4
:1012100080B400AF044B1B6F03F440731846BD4607
:101220005DF8047B704700BF0038024080B400AF17
:10123000054B1B6F044A43F40043136700BFBD46D0
:101240005DF8047B704700BF0038024080B400AFF7
:10125000054B1B6F044A43F48033136700BFBD4640
:101260005DF8047B704700BF0038024080B400AFD7
:10127000054B1B6F044A23F48033136700BFBD4640
:101280005DF8047B704700BF0038024080B400AFB7
:10129000054B1B68044A43F08073136000BFBD46D2
:1012A0005DF8047B704700BF0038024080B400AF97
:1012B000074B1B6803F00073B3F1007F0CBF0123E1
:1012C0000023DBB21846BD465DF8047B704700BFC3
:1012D0000038024080B485B000AFF860B9607A6031
:1012E0003B600D4B5A680D4B1340F968BA681143C7
:1012F0007A6892010A43084913434B60064B5B68C6
:1013000023F4403204493B6813434B6000BF143759
:10131000BD465DF8047B7047003802400080BFFF87
:1013200080B485B000AF7860084B1A6B07497B68C2
:1013300013430B63054B1A6B7B681340FB60FB6820
:1013400000BF1437BD465DF8047B7047003802408B
:1013500080B485B000AF7860084B1A6C07497B6891
:1013600013430B64054B1A6C7B681340FB60FB68EE
:1013700000BF1437BD465DF8047B7047003802405B
:1013800080B483B000AF7860074B1A6C7B68134061
:101390007A689A420CBF01230023DBB218460C374F
:1013A000BD465DF8047B70470038024080B483B0CE
:1013B00000AF7860064B1A6C7B68DB43044913402E
:1013C0000B6400BF0C37BD465DF8047B704700BF5F
:1013D0000038024080B485B000AF7860084B5A6C8A
:1013E00007497B6813434B64054B5A6C7B68134079
:1013F000FB60FB6800BF1437BD465DF8047B704797
:101400000038024080B483B000AF7860064B1B68A0
:1014100023F0070204497B6813430B6000BF0C37BD
:10142000BD465DF8047B7047003C024080B400AFCD
:10143000044B1B6803F007031846BD465DF8047BA8
:10144000704700BF003C024080B483B000AF7860BA
:10145000064B1B6823F4804204497B6813430B60EE
:1014600000BF0C37BD465DF8047B7047007000403C
:1014700080B400AF054B1B68044A43F480731360CB
:1014800000BFBD465DF8047B704700BF00700040A0
:1014900080B400AF074B1B6803F48073B3F5807F03
:1014A0000CBF01230023DBB21846BD465DF8047B68
:1014B000704700BF0070004080B400AF074B5B680E
:1014C00003F48043B3F5804F0CBF01230023DBB24C
:1014D0001846BD465DF8047B704700BF00700040B1
:1014E00080B483B000AF786039607B681B6923F4F7
:1014F000FE023B681B041A437B681A6100BF0C376D
:10150000BD465DF8047B704780B483B000AF78605F
:1015100039607B681B6923F4FF4323F07F033A683B
:101520001A437B681A6100BF0C37BD465DF8047B27
:10153000704780B487B000AFF860B9607A60FB682C
:1015400050337B61BB689B007A6913447B617B6984
:101550007A681A6000BF1C37BD465DF8047B70478F
:1015600080B485B000AF786039607B685033FB6031
:101570003B689B00FA681344FB60FB681B681846D5
:101580001437BD465DF8047B704780B483B000AF6C
:10159000786039607B685B6823F010023B681A430F
:1015A0007B685A6000BF0C37BD465DF8047B70470E
:1015B00080B483B000AF78607B681B6843F00102A1
:1015C0007B681A6000BF0C37BD465DF8047B70472E
:1015D00080B483B000AF78607B681B6823F0800222
:1015E0007B681A6000BF0C37BD465DF8047B70470E
:1015F00080B483B000AF786039607B685B6823F0AB
:1016000070023B681A437B685A6000BF0C37BD46C6
:101610005DF8047B704780B483B000AF78607B686E
:101620009B6823F080027B689A6000BF0C37BD4640
:101630005DF8047B704780B483B000AF78607B684E
:10164000DB6843F001027B68DA6000BF0C37BD46FF
:101650005DF8047B704780B483B000AF78607B682E
:10166000DB6843F400527B68DA6000BF0C37BD468C
:101670005DF8047B704780B483B000AF78607B680E
:101680001B6923F490427B681A617B685B6923F0D5
:101690002A027B685A6100BF0C37BD465DF8047BA7
:1016A000704780B483B000AF786039603B681A043B
:1016B0007B689A6100BF0C37BD465DF8047B7047BC
:1016C00080B500AF00F03AFC00F014F800F07CFAAE
:1016D00000F062FA00F0DEF900F0A2F800F06CF819
:1016E00000F02EF900F07CF800F094F9FFF7ACF967
:1016F00000BFFDE780B500AF0520FFF783FE00BF08
:10170000FFF794FE0346052BFAD14FF48040FFF714
:101710009BFEFFF7A3FC00BFFFF7B0FC0346012BC5
:10172000FAD1FFF7E1FC00BFFFF7EEFC0346012B07
:10173000FAD1FFF79DFEFFF7B5FC00BFFFF7C2FC33
:101740000346012BFAD100234FF4A87219214FF45C
:101750008000FFF7BFFDFFF799FD00BFFFF7A6FD73
:101760000346012BFAD100BFFFF7A6FE0346002B6C
:10177000FAD00020FFF7FCFC4FF4A050FFF70CFD5F
:101780004FF40040FFF71CFD0220FFF7CFFC00BF25
:10179000FFF7E0FC0346082BFAD1064802F088FB6D
:1017A0000F2000F0EDFB0346002B01D000F062FAA1
:1017B00000BF80BD007A030A80B500AF064B074A20
:1017C0001A60054800F011FD0346002B01D000F01F
:1017D00051FA00BF80BD00BF54010020003002401C
:1017E00080B500AF0D48FFF7DBFB0C48FFF7F4FBBB
:1017F00006210A48FFF7FEFB40F6FF710748FFF796
:1018000009FC00BF0548FFF715FC0346012BF9D181
:101810000248FFF7D3FB00BF80BD00BF003000408F
:1018200080B588B000AF07F1100300221A605A603B
:101830009A6007F1080300221A605A6000237B6057
:10184000FFF7E6FC0346B3F5807F32D00023FB7739
:101850004FF08050FFF794FD0346012B05D04FF069
:101860008050FFF775FD0123FB77FFF711FE03465C
:10187000012B07D0FFF7FCFD00BFFFF709FE034671
:10188000002BFAD0FFF7E2FCFFF7F0FCFFF70AFCB1
:1018900000BFFFF717FC0346012BFAD14FF480700D
:1018A000FFF7A2FCFB7F012B03D14FF08050FFF725
:1018B0007DFDFFF7BBFC00233B617F237B61FF23A2
:1018C000BB6107F1100319461C4801F0BBFC7F21E6
:1018D0001A48FFF705FEFF211848FFF715FE002103
:1018E0001648FFF73DFE034643F2F222934220D012
:1018F00000233B7300237B730023BB7307F10803B2
:101900001A4601210D4801F0CDFC01233B71012352
:101910007B710123BB710023FB713B1D1A46012122
:10192000064801F065FD43F2F22200210348FFF76B
:1019300000FE00BF2037BD4680BD00BF002800402C
:1019400080B590B000AF07F1180328220021184697
:1019500004F0E6FE3B4600221A605A609A60DA60A4
:101960001A615A614FF48040FFF7F2FC0420FFF740
:10197000D7FC0220FFF7D4FC0C233B6002237B60E2
:101980000323BB600023FB6000233B6105237B61D5
:101990003B4619461C4801F06CF94FF400533B607C
:1019A00002237B600323BB600023FB6000233B61B9
:1019B00005237B613B461946144801F05AF9002380
:1019C000BB614FF48273FB6100233B6202237B62A5
:1019D0000123BB624FF40073FB6200233B630023CF
:1019E0007B634FF40053BB630A23FB6307F11803C7
:1019F0001946074801F027FE00210548FFF7C5FDFD
:101A000000BF4037BD4680BD0008024000040240D0
:101A10000038004080B586B000AF3B1D00221A6040
:101A20005A609A60DA601A612020FFF791FC09235E
:101A3000BB800023BB6042F2CF03FB603B1D194615
:101A4000134801F08DFE1248FFF7C2FD2021104817
:101A5000FFF7CEFD0E48FFF7DEFDFFF7D7F8034690
:101A6000002205211846FFF727F9034619463720BB
:101A7000FFF7F8F83720FFF7D7F80548FFF7DBFD49
:101A80000348FFF795FD00BF1837BD4680BD00BF76
:101A90000014004080B58EB000AF07F11C03002297
:101AA0001A605A609A60DA601A615A619A613B1D45
:101AB00000221A605A609A60DA601A615A61102036
:101AC000FFF788FC0120FFF72BFC4FF4C0637B601D
:101AD0000223BB600323FB6000233B6100237B6187
:101AE0000723BB613B1D1946284801F0C2F84FF09F
:101AF000006202212648FFF70FFA00220221244843
:101B0000FFF70EF94FF4003202212148FFF7E0F908
:101B10004FF4807202211E48FFF726F900220221AD
:101B20001B48FFF745F94FF4806202211848FFF780
:101B300063F9002202211648FFF782F900220221F0
:101B40001348FFF7A1F902211148FFF709FA4FF4F2
:101B5000E133FB6100233B6200237B620023BB6215
:101B60000C23FB6200233B6300237B6307F11C0310
:101B70001946084802F0F6F80648FFF77CFD0548CC
:101B8000FFF769FD00BF3837BD4680BD0000024049
:101B9000006402400010014080B500AF4FF48000A7
:101BA000FFF7BEFBFFF732F803460022002118467C
:101BB000FFF782F8034619463A20FFF753F83A2018
:101BC000FFF732F800BF80BD80B586B000AF3B465E
:101BD00000221A605A609A60DA601A615A61042021
:101BE000FFF79EFB8020FFF79BFB1020FFF798FB81
:101BF0000220FFF795FB0120FFF792FB02211B4813
:101C0000FFF74FFD4FF480411948FFF74AFD0223CB
:101C10003B6001237B600323BB600023FB60002348
:101C20003B613B461946114801F023F84FF48043CD
:101C30003B6001237B600023BB600023FB60022329
:101C40003B613B4619460A4801F013F84FF4807394
:101C50003B6000237B6002233B613B4619460348FF
:101C600001F007F800BF1837BD4680BD00080240EC
:101C70000010024080B400AF72B600BF00BFFDE7A5
:101C800080B483B000AF00237B60104B5B6C0F4AC5
:101C900043F4804353640D4B5B6C03F480437B60DF
:101CA0007B6800233B60094B1B6C084A43F0805360
:101CB0001364064B1B6C03F080533B603B6800BF12
:101CC0000C37BD465DF8047B704700BF003802400A
:101CD00080B485B000AF78607B681B680B4A934284
:101CE0000DD10023FB600A4B1B6B094A43F4805360
:101CF0001363074B1B6B03F48053FB60FB6800BF4F
:101D00001437BD465DF8047B704700BF00300240C9
:101D10000038024080B483B000AF78607B681B68F5
:101D2000074A934205D1074B1B6B064A23F48053A5
:101D3000136300BF0C37BD465DF8047B704700BFDE
:101D4000003002400038024080B400AF00BFFDE721
:101D500080B400AF00BFFDE780B400AF00BFFDE777
:101D600080B400AF00BFFDE780B400AF00BFFDE767
:101D700080B400AF00BFBD465DF8047B704780B4FF
:101D800000AF00BFBD465DF8047B704780B400AF74
:101D900000BFBD465DF8047B704780B500AF00F022
:101DA0001FF900BF80BD80B400AF00BFBD465DF825
:101DB000047B704780B586B000AFF860B9607A6088
:101DC00000237B610AE0AFF300800146BB685A1C28
:101DD000BA60CAB21A707B6901337B617A697B6829
:101DE0009A42F0DB7B6818461837BD4680BD80B448
:101DF00083B000AF78604FF0FF3318460C37BD4614
:101E00005DF8047B704780B483B000AF78603960C0
:101E10003B684FF400525A60002318460C37BD4609
:101E20005DF8047B704780B483B000AF7860012315
:101E300018460C37BD465DF8047B704780B485B00A
:101E400000AFF860B9607A60002318461437BD46C9
:101E50005DF8047B7047000080B586B000AF786005
:101E6000144A154BD31A7B617B693B61134B1B688A
:101E7000002B02D1114B124A1A60104B1A687B6872
:101E800013443A699A4207D204F0A8FC03460C2294
:101E90001A604FF0FF3309E0084B1B68FB60074BEB
:101EA0001A687B681344054A1360FB6818461837A4
:101EB000BD4680BD00000220001000005C01002033
:101EC000E017002080B400AF064BD3F88830054AF5
:101ED00043F47003C2F8883000BFBD465DF8047B50
:101EE000704700BF00ED00E0DFF834D00D480E4928
:101EF0000E4A002302E0D458C4500433C4188C4264
:101F0000F9D30B4A0B4C002301E013600432A242C8
:101F1000FBD3FFF7D7FF04F067FCFFF7D1FB704757
:101F20000000022000000020FC000020247D0008AA
:101F300000010020DC170020FEE7000080B500AFA4
:101F40000E4B1B680D4A43F4007313600B4B1B6868
:101F50000A4A43F480631360084B1B68074A43F442
:101F600080731360032000F00DF90F2000F008F8D3
:101F7000FFF786FE0023184680BD00BF003C0240EC
:101F800080B582B000AF7860124B1A68124B1B7894
:101F900019464FF47A73B3FBF1F3B2FBF3F318462F
:101FA00000F017F90346002B01D001230EE07B68F7
:101FB0000F2B0AD8002279684FF0FF3000F0EDF8BF
:101FC000064A7B681360002300E0012318460837A7
:101FD000BD4680BD00000020080000200400002055
:101FE00080B400AF064B1B781A46064B1B6813449F
:101FF000044A136000BFBD465DF8047B704700BF14
:10200000080000206001002080B400AF034B1B6873
:102010001846BD465DF8047B704700BF6001002094
:1020200080B485B000AF78607B6803F00703FB6085
:102030000C4BDB68BB60BA684FF6FF031340BB6014
:10204000FB681A02BB68134343F0BF6343F40033D9
:10205000BB60044ABB68D36000BF1437BD465DF85F
:10206000047B704700ED00E080B400AF044BDB68F8
:102070001B0A03F007031846BD465DF8047B704752
:1020800000ED00E080B483B000AF03463960FB711F
:1020900097F90730002B0ADB3B68DAB20C4997F955
:1020A00007301201D2B20B4483F800230AE03B68E8
:1020B000DAB20849FB7903F00F03043B1201D2B2F4
:1020C0000B441A7600BF0C37BD465DF8047B7047A1
:1020D00000E100E000ED00E080B489B000AFF860FE
:1020E000B9607A60FB6803F00703FB61FB69C3F129
:1020F0000703042B28BF0423BB61FB690433062BB1
:1021000002D9FB69033B00E000237B614FF0FF3203
:10211000BB6902FA03F3DA43BB681A407B699A4051
:102120004FF0FF317B6901FA03F3D9437B680B4021
:10213000134318462437BD465DF8047B7047000002
:1021400080B582B000AF78607B68013BB3F1807FDF
:1021500001D301230FE00A4A7B68013B53600F2142
:102160004FF0FF30FFF78EFF054B00229A60044BC3
:1021700007221A60002318460837BD4680BD00BFFD
:1021800010E000E080B582B000AF78607868FFF7BB
:1021900047FF00BF0837BD4680BD80B586B000AFA1
:1021A0000346B9607A60FB7300237B61FFF75CFF35
:1021B00078617A68B9687869FFF78EFF024697F907
:1021C0000F3011461846FFF75DFF00BF1837BD46B8
:1021D00080BD80B582B000AF78607868FFF7B0FF4F
:1021E000034618460837BD4680BD80B582B000AFB3
:1021F00078607B68002B01D101230EE07B685B795E
:10220000DBB2002B05D17B6800221A717868FFF7DA
:102210005FFD7B6801225A71002318460837BD46CE
:1022200080BD80B582B000AF78607B68002B01D1A3
:1022300001231FE07B685B79DBB2022B01D1022313
:1022400018E07B6802225A717B681B689A687B6879
:102250001B6842F001029A607B681B6800221A71B9
:102260007868FFF757FD7B6800225A717B6800226F
:102270001A71002318460837BD4680BD80B586B068
:1022800000AFF860B960C7E900230123FB75234B59
:102290001B7E012B01D102233BE0204B01221A7649
:1022A0004CF2503000F070F80346FB75FB7D002BBC
:1022B0002BD1FB68002B05D13B781946B86800F09C
:1022C0001BF916E0FB68012B05D13B881946B8685D
:1022D00000F0EEF80DE0FB68022B05D13B681946D3
:1022E000B86800F0C3F804E0D7E90023B86800F04C
:1022F0008BF84CF2503000F047F80346FB75084B62
:102300001B69074A23F001031361044B00221A766C
:10231000FB7D18461837BD4680BD00BF6401002014
:10232000003C024080B483B000AF0023FB710B4B34
:102330001B69002B0BDA094B094A5A60074B094A03
:102340005A60064B1B69002B01DA0123FB71FB79F4
:1023500018460C37BD465DF8047B7047003C0240D0
:1023600023016745AB89EFCD80B400AF054B1B69F6
:10237000044A43F00043136100231846BD465DF84C
:10238000047B7047003C024080B584B000AF7860A9
:102390000023FB601A4B0022DA61FFF735FEF8607C
:1023A00010E07B68B3F1FF3F0CD07B68002B07D0B7
:1023B000FFF72AFE0246FB68D31A7A689A4201D2D6
:1023C000032319E00F4BDB6803F48033002BE8D1C3
:1023D0000C4BDB6803F00103002B02D0094B0122F8
:1023E000DA60084BDB6803F0F203002B03D000F047
:1023F000A5F8012300E0002318461037BD4680BD34
:1024000064010020003C024080B485B000AFF86059
:10241000C7E90023144B1B69134A23F4407313616B
:10242000114B1B69104A43F4407313610E4B1B6937
:102430000D4A43F001031361FB683A681A60BFF369
:102440006F8F00BFD7E900014FF000024FF000038B
:102450000A000023F968043113460B6000BF1437EB
:10246000BD465DF8047B7047003C024080B483B0F9
:1024700000AF786039600D4B1B690C4A23F4407340
:1024800013610A4B1B69094A43F400731361074B3C
:102490001B69064A43F0010313617B683A681A60BE
:1024A00000BF0C37BD465DF8047B7047003C02401E
:1024B00080B483B000AF78600B467B800D4B1B6906
:1024C0000C4A23F4407313610A4B1B69094A43F415
:1024D00080731361074B1B69064A43F001031361C4
:1024E0007B687A881A8000BF0C37BD465DF8047B94
:1024F000704700BF003C024080B483B000AF7860FA
:102500000B46FB700C4B1B690B4A23F440731361A1
:10251000094B094A1B691361074B1B69064A43F0C3
:10252000010313617B68FA781A7000BF0C37BD464F
:102530005DF8047B704700BF003C024080B400AFF0
:10254000274BDB6803F01003002B08D0254BDB6919
:1025500043F01003234AD361214B1022DA60204B51
:10256000DB6803F02003002B08D01E4BDB6943F02F
:1025700008031C4AD3611A4B2022DA60184BDB682F
:1025800003F04003002B08D0164BDB6943F0040333
:10259000144AD361124B4022DA60114BDB6803F01E
:1025A0008003002B08D00F4BDB6943F002030D4A78
:1025B000D3610B4B8022DA60094BDB6803F0020326
:1025C000002B08D0074BDB6943F02003054AD36199
:1025D000034B0222DA6000BFBD465DF8047B704702
:1025E000003C02406401002080B485B000AF7860F8
:1025F0000B46FB700023FB60FB78002B02D100230D
:10260000FB6010E0FB78012B03D14FF48073FB607B
:1026100009E0FB78022B03D14FF40073FB6002E06A
:102620004FF44073FB60134B1B69124A23F4407351
:102630001361104B1A690F49FB6813430B610D4B73
:102640001B690C4A23F0F80313610A4B1A697B6873
:10265000DB001343074A43F002031361054B1B6978
:10266000044A43F48033136100BF1437BD465DF85C
:10267000047B7047003C024080B483B000AF7860B8
:1026800039600C4A3B6813441B781A467B68134434
:102690001B6808493A680A44127811467A680A4465
:1026A00023F00103136000BF0C37BD465DF8047BC7
:1026B000704700BFC87C000880B485B000AFF860E8
:1026C000B9607A600D4ABB6813441B781A46FB68F0
:1026D00013441B6823F060620849BB680B441B78F5
:1026E0001946FB680B4419467B6813430B6000BF17
:1026F0001437BD465DF8047B704700BFC87C0008F6
:1027000080B483B000AF7860054B1A6904497B68D8
:1027100013430B6100BF0C37BD465DF8047B704767
:102720000038024080B483B000AF7860064B1A696D
:102730007B68DB43044913400B6100BF0C37BD4687
:102740005DF8047B704700BF0038024080B584B05C
:1027500000AF786039608B4BBB600023FB733B6834
:1027600013F5803F1CD17B68874A934208D14FF410
:102770000010FFF7C5FF4FF40010FFF7D3FF27E16C
:102780007B68824A934208D14FF48000FFF7B8FF7C
:102790004FF48000FFF7C6FF1AE10123FB7317E136
:1027A00039687868FFF768FF7B68774A934203D1FE
:1027B0003B68002B00F08E807B68744A934203D103
:1027C0003B68002B00F083807B686F4A934202D104
:1027D0003B68012B78D07B686C4A934202D13B68FE
:1027E000012B6ED07B68684A934202D13B68022B72
:1027F00064D07B68654A934202D13B68022B5AD071
:102800007B68614A934202D13B68032B50D07B68BE
:102810005E4A934202D13B68032B46D07B685A4AFA
:10282000934202D13B68042B3CD07B68574A9342C9
:1028300002D13B68042B32D07B68534A934202D1C9
:102840003B68052B28D07B68504A934202D13B68F5
:10285000052B1ED07B684C4A934202D13B68062B65
:1028600014D07B68494A934202D13B68062B0AD0B8
:102870007B68454A934204D13B68072B01D1444B06
:1028800003E0444B01E0444B02E001E0434B02E033
:1028900001E0434B02E001E0424B02E001E0424B29
:1028A00002E001E0414B02E001E0414B02E001E0C7
:1028B000404B02E001E0404B02E001E03F4B02E010
:1028C00001E03F4B02E001E03E4B02E001E03E4B05
:1028D00001E000E02B4BBB60BB6800221A60BB68C4
:1028E00000225A60BB6800229A60BB680022DA604E
:1028F000BB6800221A61BB6821225A610022396834
:102900007868FFF7D9FE3B68002B03D17B683F2234
:102910009A605DE03B68012B04D17B684FF47462E0
:102920009A6055E03B68022B04D17B684FF47C121F
:102930009A604DE03B68032B04D17B684FF07462D2
:102940009A6045E03B68042B03D17B683F22DA6044
:102950003EE03B68052B04D17B684FF47462DA607B
:1029600036E03B68062B04D17B684FF47C12DA60BA
:102970002EE03B68072B29D17B684FF07462DA6048
:1029800026E000BF10600240006002400064024088
:10299000B8600240B8640240A0640240A0600240F7
:1029A00088640240886002407064024070600240A7
:1029B0005864024058600240406402404060024057
:1029C0002864024028600240106402400123FB7327
:1029D000FB7B18461037BD4680BD00BF80B48BB06E
:1029E00000AFF860B9607A60FB681A68BB687B6109
:1029F0007B6993FAA3F33B613B69BB61BB69002B25
:102A000001D1202303E0BB69B3FA83F3DBB25B009F
:102A1000032101FA03F3DB431A40BB683B623B6AC4
:102A200093FAA3F3FB61FB697B627B6A002B01D104
:102A3000202303E07B6AB3FA83F3DBB25B0079689F
:102A400001FA03F31A43FB681A6000BF2C37BD4636
:102A50005DF8047B704780B485B000AFF860B96062
:102A60007A60FB685A68BB68DB431A40BB687968C8
:102A700001FB03F31A43FB685A6000BF1437BD46DD
:102A80005DF8047B704780B48BB000AFF860B9602C
:102A90007A60FB689A68BB687B617B6993FAA3F3F1
:102AA0003B613B69BB61BB69002B01D1202303E083
:102AB000BB69B3FA83F3DBB25B00032101FA03F3D2
:102AC000DB431A40BB683B623B6A93FAA3F3FB61AA
:102AD000FB697B627B6A002B01D1202303E07B6AC8
:102AE000B3FA83F3DBB25B00796801FA03F31A43AC
:102AF000FB689A6000BF2C37BD465DF8047B7047C9
:102B000080B48BB000AFF860B9607A60FB68DA68B7
:102B1000BB687B617B6993FAA3F33B613B69BB6153
:102B2000BB69002B01D1202303E0BB69B3FA83F317
:102B3000DBB25B00032101FA03F3DB431A40BB68FD
:102B40003B623B6A93FAA3F3FB61FB697B627B6A9E
:102B5000002B01D1202303E07B6AB3FA83F3DBB2BD
:102B60005B00796801FA03F31A43FB68DA6000BF7F
:102B70002C37BD465DF8047B704780B48BB000AF46
:102B8000F860B9607A60FB681A6ABB687B617B6930
:102B900093FAA3F33B613B69BB61BB69002B01D195
:102BA000202303E0BB69B3FA83F3DBB29B000F2160
:102BB00001FA03F3DB431A40BB683B623B6A93FABA
:102BC000A3F3FB61FB697B627B6A002B01D12023AD
:102BD00003E07B6AB3FA83F3DBB29B00796801FA06
:102BE00003F31A43FB681A6200BF2C37BD465DF839
:102BF000047B704780B48BB000AFF860B9607A6036
:102C0000FB685A6ABB681B0A7B617B6993FAA3F372
:102C10003B613B69BB61BB69002B01D1202303E011
:102C2000BB69B3FA83F3DBB29B000F2101FA03F314
:102C3000DB431A40BB681B0A3B623B6A93FAA3F36F
:102C4000FB61FB697B627B6A002B01D1202303E0DF
:102C50007B6AB3FA83F3DBB29B00796801FA03F372
:102C60001A43FB685A6200BF2C37BD465DF8047BEF
:102C7000704780B58AB000AF7860396000237B620E
:102C800000233B623B681B68BB61BB6993FAA3F3FB
:102C90007B617B69FB61FB69002B01D1202303E091
:102CA000FB69B3FA83F3DBB27B6257E03B681A68D7
:102CB00001217B6A01FA03F313403B623B6A002B5C
:102CC00049D03B685B68012B03D03B685B68022BF3
:102CD0000DD13B689B681A46396A7868FFF7D3FEC6
:102CE0003B68DB681A46396A7868FFF7B4FE3B68D0
:102CF0001B691A46396A7868FFF702FF3B685B6810
:102D0000022B21D13B6AFB60FB6893FAA3F3BB6003
:102D1000BB683B613B69002B01D1202303E03B6989
:102D2000B3FA83F3DBB2072B07D83B685B691A461B
:102D3000396A7868FFF721FF06E03B685B691A464D
:102D4000396A7868FFF756FF3B685B681A46396A4C
:102D50007868FFF743FE7B6A01337B623B681A6841
:102D60007B6A22FA03F3002BA0D1002318462837F0
:102D7000BD4680BD80B400AF044B9B6803F00C03DC
:102D80001846BD465DF8047B704700BF003802401E
:102D900080B400AF044B9B6803F0F0031846BD46B7
:102DA0005DF8047B704700BF0038024080B400AF7C
:102DB000044B9B6803F4E0531846BD465DF8047B62
:102DC000704700BF0038024080B400AF044B9B68DE
:102DD00003F460431846BD465DF8047B704700BFAE
:102DE0000038024080B400AF044B5B6803F48003FA
:102DF0001846BD465DF8047B704700BF00380240AE
:102E000080B400AF044B5B689B09C3F3080318460A
:102E1000BD465DF8047B70470038024080B400AFC7
:102E2000044B5B6803F440331846BD465DF8047BF1
:102E3000704700BF0038024080B400AF044B5B68AD
:102E400003F03F031846BD465DF8047B704700BFA2
:102E50000038024080B582B000AF786000F020F802
:102E600002467B681A607B681B68184600F040F8D1
:102E700002467B685A607B685B68184600F04EF833
:102E800002467B689A607B685B68184600F05AF8D7
:102E900002467B68DA6000BF0837BD4680BD00008F
:102EA00080B582B000AF00237B60FFF763FF03466D
:102EB000082B0CD0082B0FD8002B02D0042B03D0EA
:102EC0000AE0094B7B600AE0084B7B6007E00820C2
:102ED00000F04CF8786002E0034B7B6000BF7B6839
:102EE00018460837BD4680BD0024F40040787D01B7
:102EF00080B582B000AF7860FFF74AFF03461B0938
:102F000003F00F03044AD35C1A467B68D34018468B
:102F10000837BD4680BD00BFB07C000880B582B0D8
:102F200000AF7860FFF742FF03469B0A044AD35C78
:102F30001A467B68D34018460837BD4680BD00BF9F
:102F4000C07C000880B582B000AF7860FFF73CFF1E
:102F500003465B0B044AD35C1A467B68D340184691
:102F60000837BD4680BD00BFC07C000890B587B063
:102F700000AF786000237B610023FB6000233B618E
:102F8000FFF730FFF860FB68002B04D0FB68B3F557
:102F9000800F03D005E0124B7B6105E0114B7B6194
:102FA00002E00F4B7B6100BF7B68082B13D1FFF75A
:102FB00043FF02467B69B3FBF2F4FFF721FF0346B0
:102FC00003FB04F4FFF72AFF03461B0C01335B00ED
:102FD000B4FBF3F33B613B6918461C37BD4690BD1B
:102FE0000024F40040787D0180B483B000AF7860A5
:102FF00039607B689B6823F040023B681A437B681A
:103000009A6000BF0C37BD465DF8047B704780B402
:1030100083B000AF78607B689B6803F0400318467C
:103020000C37BD465DF8047B704780B483B000AFB9
:1030300078607B684FF0FF32DA6000BF0C37BD4626
:103040005DF8047B704780B483B000AF78607B6824
:103050006FF08002DA6000BF0C37BD465DF8047B7C
:10306000704780B483B000AF78607B689B6803F0E2
:103070002003202B01D1012300E0002318460C3748
:10308000BD465DF8047B704780B483B000AF7860C4
:1030900039607B681B6923F4FE023B681B041A43FA
:1030A0007B681A6100BF0C37BD465DF8047B704732
:1030B00080B483B000AF786039607B681B6923F40B
:1030C000FF4323F07F033A681A437B681A6100BF0D
:1030D0000C37BD465DF8047B704780B483B000AF09
:1030E00078607B68FF225A6200BF0C37BD465DF8EE
:1030F000047B704780B483B000AF78607B68CA22DD
:103100005A627B6853225A6200BF0C37BD465DF895
:10311000047B704780B487B000AFF860B9607A6014
:103120003B607B681B0403F47F02BB681A433B6867
:103130001B029BB21A433B6ADBB213437B61FB6801
:103140001B6823F07F1323F4FE437A691A43FB685C
:103150001A6000BF1C37BD465DF8047B7047000055
:1031600080B487B000AFF860B9607A603B60BB683C
:103170005A033B6A1B0403F47F031A433B681B0298
:103180009BB21A437B68DBB213437B61FB685A68CE
:10319000054B13407A691A43FB685A6000BF1C371D
:1031A000BD465DF8047B7047C00000FF80B483B06B
:1031B00000AF78607B68DB6803F04003402B01D1EF
:1031C000012300E0002318460C37BD465DF8047B60
:1031D000704780B483B000AF78607B68DB6803F031
:1031E0002003202B01D1012300E0002318460C37D7
:1031F000BD465DF8047B704780B483B000AF786053
:103200007B68DB6803F0800363F0A0027B68DA6010
:1032100000BF0C37BD465DF8047B704780B400AF3B
:10322000074B1B6803F48033B3F5803F0CBF0123C9
:103230000023DBB21846BD465DF8047B704700BF33
:1032400010E000E080B584B000AF78603960012301
:10325000FB737868FFF74EFF786800F06DF903465E
:10326000012B16D03B681B6819467868FFF7BCFE37
:103270003B689B6819467868FFF71AFF3B685B68F4
:1032800019467868FFF700FF7868FFF7DCFE002337
:10329000FB737868FFF721FFFB7B18461037BD46AC
:1032A00080BD0000F0B589B002AFF860B9607A6007
:1032B0000123FB75BB68002B09D1F868FFF7A7FE57
:1032C0000346002B0CD17B6800221A6008E0F868E6
:1032D000FFF79DFE0346002B02D17B6800221A6097
:1032E000F868FFF707FFF86800F026F90346012B9E
:1032F00073D0BB68002B0FD07B6819687B681B7983
:103300001A467B685B7918467B689B790093034675
:10331000F868FFF7FFFE4FE07B681C687B681B794D
:10332000324AA2FB0323DB08DBB21B01D8B27B6865
:103330001A792E4BA3FB0213D9080B469B000B44B2
:103340005B00D31ADBB20343DBB21D467B685B79BB
:10335000264AA2FB0323DB08DBB21B01D8B27B6841
:103360005A79224BA3FB0213D9080B469B000B444E
:103370005B00D31ADBB20343DBB21E467B689B794A
:103380001A4AA2FB0323DB08DBB21B01D8B27B681D
:103390009A79164BA3FB0213D9080B469B000B44EA
:1033A0005B00D31ADBB20343DBB2009333462A46F9
:1033B0002146F868FFF7AEFEF868FFF744FEF868AC
:1033C000FFF74FFE0346002B05D1F86800F0E9F83F
:1033D0000346FB7501E00023FB75F868FFF77DFEEF
:1033E000FB7D18461C37BD46F0BD00BFCDCCCCCC14
:1033F000F0B589B002AFF860B9607A600123FB755F
:10340000BB68002B0ED17B685B7803F01003002BA8
:1034100008D07B685B7823F01003DBB20A33DAB2A2
:103420007B685A70F868FFF765FEF86800F084F86A
:103430000346012B75D0BB68002B10D07B681B782E
:1034400019467B689B781A467B685B7818467B68D0
:10345000DB7800930346F868FFF782FE50E07B6854
:103460001B781C467B689B78324AA2FB0323DB084F
:10347000DBB21B01D8B27B689A782E4BA3FB0213F8
:10348000D9080B469B000B445B00D31ADBB2034305
:10349000DBB21D467B685B78264AA2FB0323DB0870
:1034A000DBB21B01D8B27B685A78224BA3FB021314
:1034B000D9080B469B000B445B00D31ADBB20343D5
:1034C000DBB21E467B68DB781A4AA2FB0323DB08CB
:1034D000DBB21B01D8B27B68DA78164BA3FB021370
:1034E000D9080B469B000B445B00D31ADBB20343A5
:1034F000DBB2009333462A462146F868FFF730FED8
:10350000F868FFF7A0FDF868FFF7ABFD0346002B56
:1035100005D1F86800F045F80346FB7501E000238B
:10352000FB75F868FFF7D9FDFB7D18461C37BD46D3
:10353000F0BD00BFCDCCCCCC80B586B000AF7860FC
:103540004FF47A73FB600023FB7500233B617868BE
:10355000FFF72CFE0346002B1ED17868FFF765FDB0
:103560007868FFF723FE386110E0FFF757FE034647
:10357000012B02D1FB68013BFB607868FFF716FE68
:103580003861FB68002B01D10123FB75FB68002B20
:1035900002D03B69012BE8D1FB7D18461837BD46A8
:1035A00080BD80B586B000AF78604FF47A73FB6061
:1035B0000023FB7500233B617868FFF71DFE7868E8
:1035C000FFF707FE386110E0FFF728FE0346012BE6
:1035D00002D1FB68013BFB607868FFF7FAFD3861B8
:1035E000FB68002B01D10123FB75FB68002B02D087
:1035F0003B69012BE8D1FB7D18461837BD4680BDDD
:1036000080B483B000AF78607B681B6803F0400330
:10361000402B01D1012300E0002318460C37BD46A2
:103620005DF8047B704780B483B000AF7860396088
:103630003B689BB21A467B681A6100BF0C37BD46D7
:103640005DF8047B704780B584B000AF7860396066
:103650000123FB737868FFF7D3FF0346002B39D1B2
:103660007B681B6823F47F4323F0BF033A6811682B
:103670003A68526811433A68926811433A68D268CE
:1036800011433A68126911433A68526911433A6822
:10369000926911433A68D26911433A68126A0A433F
:1036A0001A437B681A607B685B6823F004023B68FE
:1036B0005B691B0C1A437B685A603B681B6AB3F555
:1036C000005F05D13B685B6A19467868FFF7ABFF7E
:1036D0000023FB737B68DB6923F400627B68DA619B
:1036E000FB7B18461037BD4680BD80B483B000AF69
:1036F000786039607B683A689A6200BF0C37BD46D3
:103700005DF8047B704780B483B000AF78603960A7
:103710007B683A68DA6200BF0C37BD465DF8047B0F
:10372000704780B483B000AF786039607B683A68D6
:103730001A6300BF0C37BD465DF8047B704780B448
:1037400083B000AF78607B685B6943F001027B68FF
:103750005A6100BF0C37BD465DF8047B704700001E
:1037600080B584B000AF786039607B681B68FB600F
:103770007B683D4A934213D07B68B3F1804F0FD0F2
:103780007B683A4A93420BD07B68394A934207D010
:103790007B68384A934203D07B68374A934206D10C
:1037A000FB6823F070023B685B681343FB607B6837
:1037B0002D4A93422BD07B68B3F1804F27D07B6892
:1037C0002A4A934223D07B68294A93421FD07B68C0
:1037D000284A93421BD07B68274A934217D07B68C4
:1037E000264A934213D07B68254A93420FD07B68C8
:1037F000244A93420BD07B68234A934207D07B68CC
:10380000224A934203D07B68214A934206D1FB6847
:1038100023F440723B68DB681343FB607B68FA6803
:103820001A603B689B6819467868FFF76CFF3B6835
:103830001B8819467868FFF758FF7B680A4A93424D
:1038400003D07B680C4A934205D13B681B6919463B
:103850007868FFF766FF7868FFF771FF0023184666
:103860001037BD4680BD00BF00000140000400408D
:1038700000080040000C00400004014000400140EE
:10388000004401400048014000180040001C004076
:103890000020004080B483B000AF78607B68DB68B4
:1038A00003F40053B3F5005F0CBF01230023DBB228
:1038B00018460C37BD465DF8047B704780B483B072
:1038C00000AF786039607B681B6923F440523B6825
:1038D0001A437B681A6100BF0C37BD465DF8047B54
:1038E000704780B483B000AF786039607B685B69F3
:1038F00023F440723B681A437B685A6100BF0C375F
:10390000BD465DF8047B70472DE9B04FC0B000AFF5
:10391000C7F8FC00C7F8F810C7F8F420C7F8F03073
:10392000D7F8F430B3F5004F40F00C81D7F8F830F9
:103930000022C7F8E830C7F8EC20D7E93A4522461C
:103940002B46911839665B417B66D7E918232146DF
:1039500012EB0108294643EB01094FF000024FF03A
:1039600000034FEAC90343EA58734FEAC80290467E
:103970009946234618EB0303C7F8E0302B4649EB82
:103980000303C7F8E430D7F8F03000229A46934694
:103990001AEB0A03BB654BEB0B03FB65D7E9162358
:1039A000D7E93801FCF764FC02460B46644BA3FBE5
:1039B00002235B099BB21B019CB2D7F8F8300022AE
:1039C000C7F8D830C7F8DC20D7E9368942464B46DD
:1039D000911839655B417B65D7E91423414651183D
:1039E000B96449464B41FB644FF000024FF00003BD
:1039F000D7E912AB5946CB00514643EA51735146C1
:103A0000CA0010461946034642469B18C7F8D030F4
:103A10004B460A4642EB0303C7F8D430D7F8F030E0
:103A20000022C7F8C830C7F8CC20D7E932120B46BD
:103A3000DB183B64134642EB03037B64D7E9102396
:103A4000D7E93401FCF714FC02460B4611463C4B07
:103A5000A3FB01235B09642202FB03F3CB1ADB0007
:103A600003F13202364BA3FB02235B099BB25B00DE
:103A70009BB203F4F8739BB223449CB2D7F8F8309E
:103A80000022C7F8C030C7F8C420D7E930894246C1
:103A90004B469118B9635B41FB63D7E90E2341465E
:103AA0005118396349464B417B634FF000024FF098
:103AB0000003D7E90CAB5946CB00514643EA51739A
:103AC0005146CA0010461946034642469B18C7F89D
:103AD000B8304B460A4642EB0303C7F8BC30D7F870
:103AE000F0300022C7F8B030C7F8B420D7E92C1264
:103AF0000B46DB18BB62134642EB0303FB62D7E9BC
:103B00000A23D7E92E01FCF7B3FB02460B460C4B08
:103B1000A3FB02135B09642101FB03F3D31ADB004F
:103B20003233074AA2FB03235B099BB203F007036E
:103B30009BB223449BB21A46D7F8FC309A6008E146
:103B40001F85EB51D7F8F8300022C7F8A830C7F826
:103B5000AC20D7E92A8942464B46911839625B412D
:103B60007B62D7E9082341465418494643EB0105D7
:103B70004FF000024FF00003EB0043EA5473E20001
:103B800014461D464346E318C7F8A0304B4645EBA4
:103B90000303C7F8A430D7F8F0300022C7F89830F4
:103BA000C7F89C204FF000024FF00003D7E92645EC
:103BB00029468B00214643EA917321468A00D7E9C2
:103BC0002801FCF755FB02460B46654BA3FB02237D
:103BD0005B099BB21B019CB2D7F8F8300022C7F8F2
:103BE0009030C7F89420D7E9248942464B46911873
:103BF000B9615B41FB61D7E9062341465118396140
:103C000049464B417B614FF000024FF00003D7E97A
:103C100004AB5946CB00514643EA51735146CA00A2
:103C200010461946034642469B18C7F888304B4653
:103C30000A4642EB0303C7F88C30D7F8F030002275
:103C4000C7F88030C7F884204FF000024FF000031F
:103C5000D7E9208949468B00414643EA91734146A2
:103C60008A00D7E92201FCF703FB02460B46114606
:103C70003B4BA3FB01235B09642202FB03F3CB1A3A
:103C80001B013233364AA2FB03235B099BB203F0CC
:103C9000F0039BB223449CB2D7F8F8300022BB67F4
:103CA000FA67D7E91E8942464B469118B9605B41D5
:103CB000FB60D7E9022341465118396049464B4120
:103CC0007B604FF000024FF00003D7E900AB59468C
:103CD000CB00514643EA51735146CA00104619467B
:103CE000034642469B183B674B460A4642EB03039A
:103CF0007B67D7F8F0300022BB66FA664FF000020F
:103D00004FF00003D7E91A8949468B00414643EA40
:103D1000917341468A00D7E91C01FCF7A9FA0246D3
:103D20000B460F4BA3FB02135B09642101FB03F35A
:103D3000D31A1B0132330A4AA2FB03235B099BB24D
:103D400003F00F039BB223449BB21A46D7F8FC3012
:103D50009A6000BF07F58077BD46BDE8B08F00BF11
:103D60001F85EB5180B588B000AF786039600123C2
:103D7000FB770023BB617868FFF78CFD0346002BBF
:103D80005ED17B68DB6823F4164323F00C033A68AA
:103D900051683A68D26811433A68126911433A6827
:103DA00092690A431A437B68DA603B689B6819464C
:103DB0007868FFF783FD3B685B6919467868FFF711
:103DC00090FD07F108031846FFF744F87B681F4A87
:103DD000934202D17B69BB6121E07B681C4A93421C
:103DE00002D13B69BB611AE07B681A4A934202D157
:103DF0003B69BB6113E07B68174A934202D17B6940
:103E0000BB610CE07B68154A934202D13B69BB6100
:103E100005E07B68124A934201D13B69BB61BB69F3
:103E2000002B0DD03B681B68002B09D00023FB77CB
:103E30003B689A693B681B68B9697868FFF764FD5D
:103E4000FB7F18462037BD4680BD00BF00100140F3
:103E5000004400400048004000140140004C004075
:103E60000050004080B485B000AF78600F4B1B68F5
:103E7000FB60FB687B68B3F1FF3F0CD07B680133CC
:103E80007B6008E0094B1B6803F48033002B02D0F1
:103E90007B68013B7B607B68002BF3D100BF00BFD8
:103EA0001437BD465DF8047B704700BF10E000E0AA
:103EB00080B483B000AF7860044A7B68136000BFB1
:103EC0000C37BD465DF8047B704700BF0000002042
:103ED00080B400AFBFF34F8F00BF064BDB6803F425
:103EE000E0620449044B1343CB60BFF34F8F00BF24
:103EF00000BFFDE700ED00E00400FA0580B584B0E6
:103F000000AFF860B9607A607A680021B86801F0A3
:103F1000DDFF0E4B1B68002B06D00C4B1B681946AF
:103F20000B4801F021F80EE00A4801F01DF8074B9C
:103F3000094A1A60094800F099FD044B00221A60F2
:103F4000074801F053FC1037BD4680BD8C010020AE
:103F5000DC760008FC7600086A61707077734F4564
:103F60000000010880B5CAB000AF07F59473A3F54F
:103F70008E73186007F59473A3F59073196007F5B5
:103F80009473A3F592731A6007F59473A3F5927274
:103F900007F59473A3F5907312680021186801F077
:103FA00095FF384B00221A6000F0D0FCC7F81C01C6
:103FB000D7F81C3193F84830002B04D14FF48033EC
:103FC000C7F8243103E04FF48813C7F82431D7F839
:103FD000243107F114014FF48072184601F02EFECF
:103FE00007F114031B68C7F81831D7F8243103F51B
:103FF0008073C7F82431D7F81C3193F8483019463C
:10400000D7F81831D7F824211F4800F0ADFFD7F8B2
:104010001831002B00DAFF331B120133C7F81431BB
:104020000023C7F8203120E0D7F8243107F114012C
:104030004FF48072184601F001FE4FF48072D7F8F9
:104040002411124800F090FF07F1140320211846B4
:1040500000F0CAFFD7F8243103F58073C7F8243184
:10406000D7F820310133C7F82031D7F82021D7F80D
:1040700014319A42D8DB00BF00BF07F59477BD46E4
:1040800080BD00BF8C010020107700083077000849
:1040900080B588B000AFF860B9607A607A680021B6
:1040A000B86801F013FF264B1B68002B06D0244B89
:1040B0001B681946234800F057FF3DE000F046FC1E
:1040C00078611F4B204A1A607B6993F84830194683
:1040D0001E4800F049FF7B6993F84830002B04D15B
:1040E0001B4B4FF480321A6003E0194B4FF48812D7
:1040F0001A60174B1B6803F58073154A1360144B45
:104100001B68BB610023FB610AE0BB69184601F034
:1041100027FDBB6903F58033BB61FB690133FB619C
:10412000FB69072BF1DD0B4B00221A600A4800F0F7
:104130001BFF0A4800F018FF2037BD4680BD00BFB6
:104140008C0100204477000862696E3164770008B2
:104150000C00002090010020807700088C77000878
:1041600080B5C6B000AF07F58C73A3F586731860F1
:1041700007F58C73A3F58873196007F58C73A3F5A5
:104180008A731A6007F58C73A3F58A7207F58C732E
:10419000A3F5887312680021186801F097FE254B7B
:1041A0001B68254A934206D0224B1B6819462348B8
:1041B00000F0DAFE3AE000F0C9FBC7F814011D4B2D
:1041C0001F4A1A601F48FEF710F81E48FEF729F82C
:1041D000D7F8143193F84830002B04D11A4B4FF420
:1041E00080321A6003E0184B4FF488121A6007F10E
:1041F0001403164A12681A60134B1B6807F1140166
:104200004FF48072184601F0D7FCD7F8143193F8B8
:10421000483019460D4B1B681A460D4800F0A4FEA5
:10422000044B00221A600B4800F09EFE07F58C77C5
:10423000BD4680BD8C01002062696E31A877000800
:1042400062696E32840100200C0000209001002081
:10425000C8770008E877000880B586B000AFF8603E
:10426000B9607A607A680021B86801F02FFE1E4BB1
:104270001B68002B06D01C4B1B6819461B4800F01E
:1042800073FE2EE000F062FB7861174B184A1A604B
:104290007B6993F848301946164800F065FE7B6943
:1042A00093F84830002B04D1134B4FF480121A605E
:1042B00003E0114B4FF400121A600F4B1B6803F51B
:1042C00080730D4A13600C4B1B68184601F048FCC4
:1042D0000A4B00221A600A4800F046FE094800F026
:1042E00043FE1837BD4680BD8C010020F4770008DE
:1042F00064617431147800080C00002090010020E3
:10430000307800083C78000880B5C6B000AF07F5EB
:104310008C73A3F58673186007F58C73A3F5887307
:10432000196007F58C73A3F58A731A6007F58C730F
:10433000A3F58A7207F58C73A3F5887312680021C0
:10434000186801F0C3FD244B1B68244A934206D031
:10435000214B1B681946224800F006FE37E000F0AA
:10436000F5FAC7F814011C4B1E4A1A60D7F814312D
:1043700093F84830002B04D11B4B4FF480121A6085
:1043800003E0194B4FF400121A6007F11403174AA7
:1043900012681A60144B1B6807F114014FF4807205
:1043A000184601F009FCD7F8143193F84830194643
:1043B0000E4B1B681A460E4800F0D6FD002000F098
:1043C00055FB054B00221A600A4800F0CDFD07F5A9
:1043D0008C77BD4680BD00BF8C01002064617431C4
:1043E00058780008646174320C00002090010020AD
:1043F000787800089878000880B586B000AFF8603B
:10440000B9607A607A680021B86801F05FFD1448ED
:1044100000F0AAFD134B144A1A6000F097FA786175
:104420007B6993F84830002B04D17B69012283F823
:10443000482003E07B69002283F848207B6993F8D9
:1044400048301946094800F08FFD002000F00EFBAF
:10445000044B00221A6000BF1837BD4680BD00BF64
:10446000A47800088C010020636F6E66B87800089D
:1044700080B586B000AFF860B9607A607A680021D4
:10448000B86801F023FD0C4800F06EFD0B4B0C4AA0
:104490001A600C4800F0EAFA084B00221A604FF448
:1044A0007A70FFF7DFFC01237B617B6983F313885C
:1044B00000BFFFF70DFD00BFC87800088C01002089
:1044C000666C617361664F4580B582B000AF7860FD
:1044D00039602B4B1B682B4A934203D02A4A9342E4
:1044E00025D049E0294B18687B6819687B685B68B0
:1044F0001A4601F035FC7B685B681A46234B1B6843
:104500001344224A13607B685A68214B1B6813448A
:104510001F4A13601D4B19681D4B1A687B685B6846
:104520001C4800F021FD786801F075FC24E0174B71
:1045300018687B6819687B685B681A4601F010FC94
:104540007B685B681A46114B1B6813440F4A136063
:104550007B685A680E4B1B6813440D4A13600B4B63
:1045600019680B4B1A687B685B680B4800F0FCFC11
:10457000786801F050FC00BF00BF0837BD4680BD21
:104580008C01002062696E31646174310C0000207E
:1045900090010020DC7800080879000880B584B01C
:1045A00000AFF860B9607A60074800F05FFAB86859
:1045B00001F031FC054800F0D7FC01F04DF900BFD7
:1045C0001037BD4680BD00BF74694F45347900087F
:1045D00080B584B000AFF860B9607A60B86801F067
:1045E0001AFC054800F0C0FC044B00221A6000BF12
:1045F0001037BD4680BD00BF487900088C010020FF
:1046000080B582B000AF0E4800F0AEFC00237B60A6
:104610000DE07B68DB000B4A13443B603B680022E3
:104620001A603B6800225A607B6801337B607B68BC
:104630000F2BEEDD00BF00BF0837BD4680BD00BFB9
:104640005C7900089401002080B584B000AF7860E8
:1046500039600023FB6016E0FB68DB00114A13445D
:10466000BB60BB681B68002B0AD1BB687A681A6004
:10467000BB683A685A6079680B4800F075FC05E041
:10468000FB680133FB60FB680F2BE5DDFB680F2B3C
:1046900004DD7968054800F067FC00BF1037BD46AF
:1046A00080BD00BF940100206C7900088479000867
:1046B00080B584B000AF78600023BB600023FB604E
:1046C0000BE0FB68DB00494A1344BB60BB681B6816
:1046D000002B06D0FB680133FB60FB680F2BF0DD7D
:1046E00000E000BFFB680F2B04DD7968404800F054
:1046F0003BFC77E079683F4800F036FCBB687A689D
:104700001A607B683C4A934264D07B683B4A934280
:1047100068D27B683A4A934258D07B68384A9342C1
:1047200060D87B68374A934234D07B68354A9342DD
:1047300058D87B68344A934244D07B68324A9342CB
:1047400050D87B68314A934248D07B682F4A9342C5
:1047500048D87B682E4A934230D07B682C4A9342DB
:1047600040D87B682B4A934220D07B68294A9342E9
:1047700038D87B68284A93421CD07B68264A9342EB
:1047800030D87B68254A934208D07B68244A9342FC
:1047900008D027E0BB68234A5A6023E0BB68224A5E
:1047A0005A601FE0BB68214A5A601BE0BB68204A80
:1047B0005A6017E0BB681F4A5A6013E0BB681E4A84
:1047C0005A600FE0BB681D4A5A600BE0BB681C4A88
:1047D0005A6007E0BB681B4A5A6003E0BB681A4A8C
:1047E0005A6000BF1037BD4680BD00BF9401002055
:1047F000847900089879000872657374736573741E
:10480000666C61736A617070636F6E6663616E631C
:104810006461743262696E326461743162696E30EF
:1048200062696E31FD3E0008653F00089140000856
:10483000614100085942000809430008F943000893
:10484000714400089D450008D145000880B58AB034
:1048500000AF78607B681B687B620023FB610023EC
:10486000BB617B685B680B2B25DD7B685B680B3B62
:104870007B6100233B621AE07B6A1B683B617B6AB9
:104880009B68FB603B69B3F1233F0AD1FB68244A74
:10489000934206D17B6A5B68FB613B6A0C33BB6168
:1048A00009E07B6A01337B623B6A01333B623A6A0F
:1048B0007B699A42E0DB10233B62FB69002B19D035
:1048C00000233B6213E03B6ADB00164A1344BB60E3
:1048D000BB681B68FA699A4206D1BB685B68BA6913
:1048E0007968F869984705E03B6A01333B623B6AA7
:1048F0000F2BE8DD3B6A0F2B03DDB9697868FFF702
:10490000E3FD7B685B68B3F57A7F05DB064800F062
:104910002BFB786801F07FFA00BF2837BD4680BDC9
:1049200040400D0A94010020B079000880B483B0A3
:1049300000AF7860044A7B68136000BF0C37BD4647
:104940005DF8047B704700BF8C01002080B400AF8D
:10495000024B1846BD465DF8047B704714020020E8
:1049600080B483B000AF78607B68134A934216D05E
:104970007B68114A934218D87B68104A93420CD046
:104980007B680E4A934210D87B680D4A934208D048
:104990007B680C4A934206D007E00B4B06E00B4BBA
:1049A00004E00B4B02E00B4B00E00B4B18460C37BE
:1049B000BD465DF8047B704777734F45726E4F4577
:1049C00061664F4574694F45C4790008D079000885
:1049D000DC790008E8790008F47900082DE9F04155
:1049E00092B00AAF07F11403184600F095FE40227A
:1049F00000211B4801F094FE3B7D9E467B7D98463E
:104A0000BB7DFB60FA7D397E787EBC7EFD7E3E7F7D
:104A100097F81DC0C7F808C097F81EC0C7F804C0B3
:104A200097F81FC0634609937B680893BB68079398
:104A3000069605950494039002910192FB680093F9
:104A4000434672460749064801F020FD04490648DE
:104A500000F08AFA00BF2037BD46BDE8F08100BFF4
:104A60001C020020047A0008407A000890B583B048
:104A700000AF78607B68002B02D00F4A7B685360E0
:104A80000D4B1C680C4B5B681846FFF769FF02462C
:104A9000094B93F848302146084800F065FA032096
:104AA00000F020FD4C220449054800F071FD00BFD4
:104AB0000C37BD4690BD00BF14020020507A00089C
:104AC00000C0000898B500AF4C220021244801F036
:104AD00027FE4C222249234800F026FD204B0022CD
:104AE00083F847201E4B1C681D4B5B681846FFF778
:104AF00037FF02461A4B93F8483021461A4800F017
:104B000033FA174B1B68194A934221D04C220021DB
:104B1000134801F005FE124B144A1A60104B144A58
:104B20005A60FFF75BFF1248FFF7A0FF0C4B1C68B1
:104B30000B4B5B681846FFF713FF0246084B93F8D0
:104B4000483021460B4800F00FFA4FF0FF3304E0E5
:104B500009490A4800F008FA0023184698BD00BF2A
:104B60001402002000C000087C7A00080700011031
:104B700074694F45A87A00081C020020407A00089A
:104B800080B483B000AF78607B681B681B0C03F0B7
:104B90003F0318460C37BD465DF8047B704780B470
:104BA00083B000AF78607B681B681B0A03F07F034B
:104BB00018460C37BD465DF8047B704780B483B05F
:104BC00000AF78607B681B6803F07F0318460C37E2
:104BD000BD465DF8047B704780B483B000AF786059
:104BE0007B685B681B0CDBB218460C37BD465DF872
:104BF000047B704780B483B000AF78607B685B68EB
:104C00001B0A03F01F0318460C37BD465DF8047BF2
:104C1000704780B483B000AF78607B685B6803F056
:104C20003F0318460C37BD465DF8047B7047000013
:104C300090B583B000AF78605248FFF7CDFF0346D0
:104C4000DBB21B11DBB203F00F03DBB21A4692009A
:104C500013445B00DCB24B48FFF7BEFF0346DBB2F8
:104C600003F00F03DBB22344DAB27B681A704548C5
:104C7000FFF7C0FF0346DBB21B11DBB203F00F03EB
:104C8000DBB21A46920013445B00DCB23D48FFF7EA
:104C9000B1FF0346DBB203F00F03DBB22344DAB209
:104CA0007B685A703748FFF7B4FF0346DBB21B112D
:104CB000DBB203F00F03DBB21A46920013445B0031
:104CC000DCB23048FFF7A5FF0346DBB203F00F0369
:104CD000DBB22344DAB27B689A702A48FFF750FFB0
:104CE0000346DBB21B11DBB203F00F03DBB21A4643
:104CF000920013445B00DCB22248FFF741FF0346F9
:104D0000DBB203F00F03DBB22344DAB27B68DA7064
:104D10001C48FFF744FF0346DBB21B11DBB203F074
:104D20000F03DBB21A46920013445B00DCB2154855
:104D3000FFF735FF0346DBB203F00F03DBB223447A
:104D4000DAB27B681A710F48FFF738FF0346DBB20F
:104D50001B11DBB203F00F03DBB21A4692001344BF
:104D60005B00DCB20748FFF729FF0346DBB203F024
:104D70000F03DBB22344DAB27B685A7100BF0C37F1
:104D8000BD4690BD0028004080B483B000AF78607D
:104D90007B68DB6823F400527B68DA6000BF0C3765
:104DA000BD465DF8047B704780B483B000AF786087
:104DB0007B681B6803F04003402B0CBF01230023DA
:104DC000DBB218460C37BD465DF8047B704780B4F3
:104DD00089B000AF78607B681433FB60FB6853E8F0
:104DE000003FBB60BB6843F04003FB617B6814334A
:104DF000FA69BA617B617969BA6941E800233B616C
:104E00003B69002BE7D100BF00BF2437BD465DF8EA
:104E1000047B704780B483B000AF78600B46FB70B2
:104E2000FA787B685A6000BF0C37BD465DF8047B9A
:104E30007047000080B483B000AF786039600C4ADE
:104E40003B6813441B781A467B6813441B68084967
:104E50003A680A44127811467A680A4423F001033A
:104E6000136000BF0C37BD465DF8047B704700BF80
:104E7000D07C000880B483B000AF78607B684AF6CD
:104E8000AA221A6000BF0C37BD465DF8047B70474C
:104E900080B586B000AFF860B9607A6000237B61AE
:104EA00011E000BF0C48FFF77FFF0346002BF9D04D
:104EB000BB685A1CBA601B7819460748FFF7AAFF5F
:104EC0007B6901337B617A697B689A42E9DB7B68A5
:104ED00018461837BD4680BD0010014080B582B02D
:104EE00002AF0C4B0C4A1A600A4B4FF400629A60F6
:104EF000084B00225A60074B0093084B02220849D6
:104F0000084800F027FA0848FFF761FF00BFBD46D8
:104F100080BD00BF600A0020600200200410014034
:104F200000640240740A00200010014080B500AF08
:104F300002210648FFF77EFF02210448FDF706FC28
:104F40000348FFF721FF00BF80BD00BF006402409F
:104F50000010014080B400AF024B1846BD465DF81A
:104F6000047B7047600A00200FB4B0B588B004AF6E
:104F70003B1D1846FFF75CFE07F124033B603B68CE
:104F80003A6A40F2FF71154801F00EFBF860134BCE
:104F9000002283F8FF27114AFB68134400221A708D
:104FA0007B791846BB791C46FB791D463B7A1A462D
:104FB0007B7A1946094B0293019100922B462246B7
:104FC0000146074801F0BEF90648FFF753FF00BF4E
:104FD0001037BD46BDE8B04004B07047880E0020D1
:104FE000D47A00080030004080B588B000AF786007
:104FF00039607B68FB613B68FB6040F2A5233B6145
:105000003A683B699A4201DA3B683B613B68C82BCE
:1050100001DDC8233B60FB68294A4FF40061294841
:1050200001F000FA274801F08DF900237B6100238D
:10503000BB6115E07B69234A98187B69C3F500635F
:105040001946FB691B78204A01F0ECF902467B699E
:1050500013447B61FB690133FB61BB690133BB61B5
:10506000BA693B689A42E5DB3A683B699A420FD0DD
:10507000144A7B6913442E221A707B6901337B61C9
:10508000104A7B6913442E221A707B6901337B61BD
:105090000C4A7B6913440A221A707B6901337B61D5
:1050A000084A7B69134400221A70064801F04AF945
:1050B0000648FFF7DFFE00BF2037BD4680BD00BFBA
:1050C000107B0008880E0020187B0008003000408C
:1050D00080B582B000AF0F4800F080F978607B683F
:1050E000002B03DA0C4801F095F90FE07B68002BE8
:1050F0000CDD0A4B1B68094A5268134400221A70DF
:10510000064B5B681946064801F01CF900BF0837DA
:10511000BD4680BD740A0020207B0008600A002084
:10512000387B000880B483B000AF786039600C4AE7
:105130003B6813441B781A467B6813441B68084974
:105140003A680A44127811467A680A4443F0010327
:10515000136000BF0C37BD465DF8047B704700BF8D
:10516000D87C000880B483B000AF786039600C4A06
:105170003B6813441B781A467B6813441B68084934
:105180003A680A44127811467A680A4423F0010307
:10519000136000BF0C37BD465DF8047B704700BF4D
:1051A000D87C000880B485B000AFF860B9607A6040
:1051B0000D4ABB6813441B781A46FB6813445B68AE
:1051C0001B0C1B040849BA680A4412781146FA6895
:1051D0000A4411467A6813434B6000BF1437BD463A
:1051E0005DF8047B704700BFD87C000880B483B0B2
:1051F00000AF78603960074A3B6813441B781A4651
:105200007B6813445B689BB218460C37BD465DF85B
:10521000047B7047D87C000880B485B000AFF8608C
:10522000B9607A60074ABB6813441B781A46FB686A
:1052300013441A467B68D36000BF1437BD465DF83F
:10524000047B7047D87C000880B485B000AFF8605C
:10525000B9607A60074ABB6813441B781A46FB683A
:1052600013441A467B68936000BF1437BD465DF84F
:10527000047B7047D87C000880B483B000AF7860AE
:105280007B6820229A6000BF0C37BD465DF8047B26
:10529000704780B483B000AF78607B684FF40062E1
:1052A0009A6000BF0C37BD465DF8047B704780B440
:1052B00083B000AF78607B684FF400129A6000BF43
:1052C0000C37BD465DF8047B704780B483B000AFF7
:1052D00078607B684FF000629A6000BF0C37BD4673
:1052E0005DF8047B704780B483B000AF78607B6862
:1052F0002022DA6000BF0C37BD465DF8047B7047A2
:1053000080B483B000AF78607B684FF40062DA60ED
:1053100000BF0C37BD465DF8047B704780B483B096
:1053200000AF78607B684FF40012DA6000BF0C3782
:10533000BD465DF8047B704780B483B000AF7860F1
:105340007B684FF00062DA6000BF0C37BD465DF845
:10535000047B704780B584B000AFF860B9607A60B4
:105360003B6040F214420021F86801F0D9F9FB6873
:10537000BA681A60FB687A685A60FB68BA69C3F851
:105380001024FB6800229A60FB684FF48062DA60A8
:10539000FB681868FB685968FB6810331A46FFF70A
:1053A0003BFFFB681868FB685B684FF48062194636
:1053B000FFF7F8FEFB681868FB685B683A681946F7
:1053C000FFF742FFFB681A68FB685B6819461046E6
:1053D000FFF7A8FE00BF1037BD4680BD80B586B080
:1053E00000AF78607B68D3F810347B617B681A6803
:1053F0007B685B6819461046FFF7B4FE7B681A6845
:105400007B685B6819461046FFF7F0FE38613B6920
:10541000C3F58063FB60FB68002B06DD7B681033FF
:10542000FA681946786900F009FD7B685B68072B0C
:1054300042D801A252F823F05954000865540008DC
:10544000715400087D5400088954000895540008E0
:10545000A1540008AD5400087B681B681846FFF78C
:105460000BFF29E07B681B681846FFF712FF23E05B
:105470007B681B681846FFF71AFF1DE07B681B68F6
:105480001846FFF722FF17E07B681B681846FFF7F6
:105490002AFF11E07B681B681846FFF731FF0BE01D
:1054A0007B681B681846FFF739FF05E07B681B68BF
:1054B0001846FFF741FF00BF7B6818687B685B6890
:1054C0004FF480621946FFF76DFE7B681A687B68AF
:1054D0005B6819461046FFF725FEFB68184618372B
:1054E000BD4680BD80B582B000AF7860FCF71AFF82
:1054F0000C4B1B680B4A23F480631360094BF322A7
:10550000DA6002217868FDF76FF8064B1B68054AE0
:1055100043F480631360FCF727FF00231846083725
:10552000BD4680BD003C024080B588B000AFF86049
:10553000B9607A607B6803F00303002B05D0134841
:10554000FFF712FD4FF0FF331BE0FB68FB61BB6808
:10555000BB617B689B083B6100237B610CE0FB69BE
:105560001A68BB691A60BB690433BB61FB69043309
:10557000FB617B6901337B617A693B699A42EEDBAF
:105580007B6818462037BD4680BD00BF6C7B000895
:10559000B0B58CB000AFF860B9607A607B6803F09A
:1055A0000303002B05D03148FFF7DEFC4FF0FF333B
:1055B00058E0FCF7B7FE2E4B1B682D4A23F480639E
:1055C00013602B4BF322DA60BB68FB62FB68BB62A3
:1055D0007B689B083B6200237B6236E0FB6A1B68AA
:1055E000FB610023BB6114E0B96AFB6900221C4621
:1055F000154622462B460220FCF740FE0346FB756B
:10560000FB7D002B09D00120FEF72CFC7B6A0133C7
:105610007B62BB69042BE7DD00E000BFBB69042BA4
:105620000ADD134B1B68124A43F480631360FCF7D6
:105630009BFE4FF0FF3315E0BB6A0433BB62FB6A8D
:105640000433FB627B6A01337B627A6A3B6A9A426B
:10565000C4DB074B1B68064A43F480631360FCF706
:1056600083FE7B6818463037BD46B0BD847B00089A
:10567000003C024080B483B000AF78607B686FF07C
:1056800001021A6100BF0C37BD465DF8047B70470C
:1056900080B483B000AF78607B681B6903F00103BE
:1056A000012B01D1012300E0002318460C37BD4631
:1056B0005DF8047B70470000B0B500AF0948FFF704
:1056C000E7FF0346012B0BD1074BD3E90023541C02
:1056D00043F10005044BC3E900450248FFF7CAFF48
:1056E00000BFB0BD001400408816002080B400AF99
:1056F000BFF34F8F00BF064BDB6803F4E062044941
:10570000044B1343CB60BFF34F8F00BF00BFFDE7D7
:1057100000ED00E00400FA0580B483B000AF7860CB
:10572000264B1B68DAB27B681A70254B1A687B68B7
:105730000133D2B21A70234B1A687B680233D2B29B
:105740001A70214B1A687B680333D2B21A701F4B50
:105750001A687B680433D2B21A701D4B1A687B68D2
:105760000533D2B21A701B4B1A687B680633D2B26B
:105770001A70194B1A687B680733D2B21A70174B2C
:105780001A687B680833D2B21A70154B1A687B68A6
:105790000933D2B21A70134B1A687B680A33D2B23B
:1057A0001A70114B1A687B680B33D2B21A7000BFA3
:1057B0000C37BD465DF8047B704700BF107AFF1FB1
:1057C000117AFF1F127AFF1F137AFF1F147AFF1F2F
:1057D000157AFF1F167AFF1F177AFF1F187AFF1F0F
:1057E000197AFF1F1A7AFF1F1B7AFF1F80B586B038
:1057F00000AF78607B681B687B617A6979681348C1
:10580000FFF7B2FB4FF47A70FEF72CFB7A69104B6E
:105810001340B3F1005F12D1FFF788FB72B600BFEF
:105820007B6804331B683B617B681B68FB60FB681B
:1058300083F3088800BF3B69984700BFFDE7054830
:10584000FFF792FB00BF1837BD4680BD9C7B000868
:105850000000FC2FBC7B000880B500AF0448FFF7B8
:1058600083FB40F6B830FEF7FDFAFFF73FFF00BFBD
:10587000C87B000880B483B000AF786039607B6873
:105880003A689A6100BF0C37BD465DF8047B7047EB
:1058900080B483B000AF786039603B681A047B68DD
:1058A0009A6100BF0C37BD465DF8047B704780B439
:1058B00083B000AF78607B681B6843F040027B6870
:1058C0001A6000BF0C37BD465DF8047B704780B49A
:1058D00083B000AF78607B689B6803F00103012B05
:1058E00001D1012300E0002318460C37BD465DF8C6
:1058F000047B704780B483B000AF78607B689B689E
:1059000003F00203022B01D1012300E0002318461B
:105910000C37BD465DF8047B704780B483B000AFA0
:1059200078607B680C331B78DBB218460C37BD46B9
:105930005DF8047B704780B485B000AF78600B469B
:10594000FB707B680C33FB60FB68FA781A7000BF51
:105950001437BD465DF8047B704780B582B000AF58
:1059600078607868FFF7B3FF034618460837BD46EE
:1059700080BD000080B582B000AF0346FB7100BF60
:105980000C48FFF7B7FF0346002BF9D0FB79194607
:105990000848FFF7D0FF00BF0648FFF7DEFF0346C9
:1059A000002BF9D00348FFF7B8FF03461846083725
:1059B000BD4680BD00380040B0B584B002AF0221C2
:1059C0003748FFF765FF9020FFF7D4FF0020FFF76F
:1059D000D1FF0020FFF7CEFF0020FFF7CBFFFF2015
:1059E000FFF7C8FF03461B021CB2FF20FFF7C2FFF0
:1059F00003461BB223431BB2BB8002212848FFF79A
:105A000039FF0523FB700023FB710DE0FA7925496E
:105A10001346DB009B1A9B000B441B88BA889A42F2
:105A200007D0FB790133FB71FA79FB789A42EDD309
:105A300000E000BFFA79FB789A4226D21A4AFB7935
:105A40001370F978FA791346DB009B1A9B00154A0C
:105A50001344181DFA79134C1346DB009B1A9B0064
:105A600023440233B3F900301D46FA790D4C134636
:105A7000DB009B1A9B00234414331B6800932B46C6
:105A800002460A48FFF770FA05E0FB78BA88194623
:105A90000748FFF769FABB8818460837BD46B0BD0E
:105AA00000080240100000209C000020007C00083C
:105AB000287C000880B500AF0C48FFF755FA02219A
:105AC0000B48FFF7D7FE0B48FFF7F1FE3220FEF739
:105AD000C9F9FFF771FF084B1B787F2B04D13220E7
:105AE000FEF7C0F9FFF768FF00BF80BD407C0008EB
:105AF00000080240003800409C00002080B500AF44
:105B000002210648FFF7C4FE0620FFF733FF0221FB
:105B10000248FFF7AFFE00BF80BD00BF0008024093
:105B200080B582B000AF02210C48FFF7B1FE05201E
:105B3000FFF720FFFF20FFF71DFF0346FB71022147
:105B40000648FFF797FEFB7903F00103002B00D016
:105B5000E9E700BF00BF0837BD4680BD000802402E
:105B600080B582B000AF7860FFF7C8FFFFF7D8FFBD
:105B700002211048FFF78CFED820FFF7FBFE7B6860
:105B80001B0CDBB21846FFF7F5FE7B681B0ADBB285
:105B90001846FFF7EFFE7B68DBB21846FFF7EAFE18
:105BA00002210448FFF766FEFFF7BAFF00BF08377F
:105BB000BD4680BD0008024080B586B000AFF860E9
:105BC000B9607A60FFF79AFFFFF7AAFF02211A482F
:105BD000FFF75EFE0220FFF7CDFEFB681B0CDBB279
:105BE0001846FFF7C7FEFB681B0ADBB21846FFF733
:105BF000C1FEFB68DBB21846FFF7BCFEBB683B6129
:105C000000237B6109E07B693A6913441B781846DD
:105C1000FFF7B0FE7B6901337B617A697B689A424A
:105C2000F1DB02210448FFF725FEFFF779FF00BFF3
:105C30001837BD4680BD00BF0008024090B587B050
:105C400000AFF860B9607A6002211948FFF720FEC2
:105C50000320FFF78FFEFB681B0CDBB21846FFF733
:105C600089FEFB681B0ADBB21846FFF783FEFB6860
:105C7000DBB21846FFF77EFEBB683B6100237B6109
:105C80000AE07B693A69D418FF20FFF773FE0346E8
:105C900023707B6901337B617A697B689A42F0DB10
:105CA00002210348FFF7E6FD00BF1C37BD4690BD4B
:105CB0000008024080B58AB002AFF860B9607A602F
:105CC0000023BB6102212448FFF7E2FD0320FFF718
:105CD00051FEFB681B0CDBB21846FFF74BFEFB685E
:105CE0001B0ADBB21846FFF745FEFB68DBB218461D
:105CF000FFF740FEBB687B610023FB611EE0FF20D5
:105D0000FFF738FE0346FB74FB697A6913441B787E
:105D1000FA7C9A420FD0F968FB697A6913441B78C0
:105D20001A46FB7C00931346FA690C48FFF71CF9EE
:105D3000BB690133BB61FB690133FB61FA697B68B5
:105D40009A42DCDB02210448FFF794FDBB69184648
:105D50002037BD4680BD00BF00080240647C0008BB
:105D600080B58AB000AFF860B9607A60BB683B620A
:105D70007B68002B00DAFF331B1205337B610023A5
:105D8000FB613DE07B68002B3FDDFB68DBB2C3F5C8
:105D900080737B627B687A6A9A4201D97B687B62F6
:105DA0000023BB6112E07B6A1A46396AF868FFF784
:105DB00003FF7B6A1A46396AF868FFF77BFF386190
:105DC0003B69002B06D0BB690133BB61BB69042B67
:105DD000E9DD00E000BFBB69042B02DD4FF0FF33BB
:105DE00015E0FA687B6A1344FB603A6A7B6A1344E5
:105DF0003B627A687B6AD31A7B60FB690133FB6183
:105E0000FA697B699A42BDDB00E000BF7B681846F7
:105E10002837BD4680BD80B483B000AF78607B6812
:105E200000225A607B680022DA607B6800221A61D7
:105E300000BF0C37BD465DF8047B704780B586B067
:105E400000AFF860B9607A607B68002B02DCFB6809
:105E50005B6837E0FB681B68002B02D14FF0FF3313
:105E600030E0FB689A68FB685B68D31A7B617A69EB
:105E70007B689A4201DD7B687B617B69002B02DCD9
:105E80004FF0FF331EE0FB681B68FA68526813444A
:105E90007A69B968184600F0CEFCFB685A687B69DD
:105EA0001A44FB685A60FB685A68FB689B689A4210
:105EB00006DAFB681B68FA685268134400221A70FD
:105EC000FB685B6818461837BD4680BD80B586B054
:105ED00000AFF860B9607A60FB681B68002B02D1E4
:105EE0004FF0FF3327E0FB685B687A689A4202DD77
:105EF000FB685B687B60BB68002B06D0FB681B6897
:105F00007A681946B86800F096FCFB685A687B68A6
:105F1000D31A7B617B69002B09DDFB681868FB687D
:105F20001A687B6813447A69194600F0DFFBFB6846
:105F30007A695A607B6818461837BD4680BD80B4C0
:105F400085B000AFF860B960C7E90023FB68BA68A4
:105F50001A60F968D7E90023C1E90423F9684FF012
:105F600000024FF00003C1E90223FB684FF0FF324B
:105F70009A61FB68BA69DA61FB68FA691A62FB68C0
:105F80003A6A9A62FB68DB69002B03DCFB686FF0FE
:105F90000042DA61FB6800225A6200BF1437BD4636
:105FA0005DF8047B704780B483B000AF78607B6895
:105FB00001225A6200BF0C37BD465DF8047B704772
:105FC000B0B584B000AFF860C7E90023FB685B6A36
:105FD000002B3ED0FB689B69002B0ADAF968D7E9F1
:105FE0000023C1E90223FB689B695A1CFB689A6184
:105FF00032E0FB68D3E90201FB68D3E9042384188B
:1060000041EB0305D7E90023A242AB4123D3F96852
:10601000D7E90023C1E90223FB689B695A1CFB688E
:106020009A61FB689A69FB68DB699A4208DBFB6846
:106030001B6819460A4800F085F9FB6800225A627D
:10604000FB689B6A002B07D0FB689B6AF86898473F
:1060500002E000BF00E000BF1037BD46B0BD00BF8A
:10606000987C000870B50F4E0C463168054611B992
:1060700000F092FB30602146284600F08DFB431C67
:1060800003D14FF0FF34204670BDC41C24F003043C
:10609000A042F8D0211A284600F07EFB0130F2D150
:1060A000EFE700BF901600202DE9F843CD1C25F046
:1060B000030508350C2D38BF0C25002D064601DBE5
:1060C000A94204D90C2333600020BDE8F883DFF82F
:1060D000D48000F069F8D8F800301C4644BB29464B
:1060E0003046FFF7BFFF431C044658D1D8F80040A4
:1060F0002746002F43D1002C4BD023683946304629
:1061000004EB030900F048FB814542D121686D1A78
:1061100029463046FFF7A6FF01303AD023682B44CA
:106120002360D8F800305A6862BBC8F800700FE0EE
:106130002268521B20D40B2A17D96119A34225606B
:1061400018BF5960636808BFC8F8001062514B60FF
:10615000304600F02FF804F10B00231D20F007005B
:10616000C21A1CBF1B1AA350AFE76268A3420CBF40
:10617000C8F800205A60EBE723466468AEE73C4667
:106180007F68B6E71A465B68A342FBD100235360E1
:10619000DEE70C233360304600F00CF894E705602E
:1061A000D6E700BF94160020014800F042BB00BFB4
:1061B000D8170020014800F03DBB00BFD8170020D1
:1061C000002310B50446C0E90033C0E904338360FE
:1061D00081814366C2818361194608225C3000F0E8
:1061E0009FFA0D4B63620D4BA3620D4BE3620D4BA7
:1061F00023630D4B24629C4206D003F16802944253
:1062000002D0D0339C4205D104F15800BDE81040C3
:1062100000F00EBB10BD00BFCD640008EF640008A5
:10622000276500084B65000898160020024A0349BC
:10623000034800F069B800BFA000002041720008C8
:10624000B000002041680C4B994210B5044601D0C3
:1062500000F0F6FFA168094B994202D0204600F0F9
:10626000EFFFE168064B994204D02046BDE810409C
:1062700000F0E6BF10BD00BF9816002000170020F8
:106280006817002010B50B4B0B4C0C4A1A602046C7
:1062900000220421FFF794FF04F168000122092184
:1062A000FFF78EFF04F1D0000222BDE8104012215A
:1062B000FFF786BFD0170020981600202D62000837
:1062C000014800F0B6BA00BFD9170020014800F01D
:1062D000B1BA00BFD917002010B50446FFF7F0FF90
:1062E000236A1BB1BDE81040FFF7F0BF044B2362E7
:1062F000044B1B68002BF5D1FFF7C4FFF2E700BF8A
:1063000045620008D01700202DE9F843074688466B
:1063100014460026D4E90195B9F1010905D5246890
:10632000002CF7D13046BDE8F883AB89012B07D9A3
:10633000B5F90E30013303D029463846C04706432D
:106340006835E9E70FB407B5064904AB086853F8A8
:10635000042B8168019300F049FC03B05DF804EB65
:1063600004B07047AC000020036A70B5846805462D
:106370000E460BB9FFF7B0FF636EDB0705D4A389A8
:10638000980502D4A06D00F054FAA389190702D52C
:106390002369002B35D12146284600F051F980B3FE
:1063A0004FF0FF35636EDA0705D4A3899B0502D44D
:1063B000A06D00F03FFA284670BD002B04DAA269F8
:1063C0009A4217DC0A2915D023685A1C22601970DA
:1063D000A36816F8011F013BA3600029EDD1002B33
:1063E00011DA22460A21284600F0ECF80130D7D015
:1063F0000A25D7E72246284600F0E4F80130E7D125
:10640000CEE7013EE4E723685A1C22600A221A7094
:10641000EEE70000024B01461868FFF7A5BF00BF7A
:10642000AC0000200CB430B5174B0C1E1D689DB09D
:1064300008DA8B232B604FF0FF301DB0BDE83040F1
:1064400002B070474FF40273ADF8143014BF04F17A
:10645000FF332346049307934FF6FF730290069091
:10646000ADF81630209A21AB02A92846019300F01E
:1064700097FA431CBCBF8B232B60002CDDD0029B02
:1064800000221A70D9E700BFAC0000200EB400B59E
:106490009CB01DAB029006906FF000410948079137
:1064A0000491094953F8042B05910068019302A94E
:1064B00000F076FA029B00221A701CB05DF804EB23
:1064C00003B07047AC0000200802FFFF10B50C4677
:1064D000B1F90E1000F04EF90028ABBF636DA3892F
:1064E0001B1823F48053ACBF6365A38110BD2DE955
:1064F000F0411F468B89DB0505460C46164605D53F
:10650000B1F90E100223002200F022F9A389B4F998
:106510000E1023F48053A38132463B462846BDE843
:10652000F04100F049B910B50C46B1F90E1000F079
:106530000FF9431CA38915BF606523F4805343F40E
:106540008053A38118BFA38110BDB1F90E1000F0D4
:10655000EFB830B51446002C9BB005461A4605DA54
:106560008B2303604FF0FF301BB030BD4FF402733C
:10657000ADF80C3014BF04F1FF33234602930593AA
:106580004FF6FF7300910491ADF80E3069461E9BE3
:1065900000F006FA431CBCBF8B232B60002CE3D019
:1065A000009B00221A70DFE707B5009313460A46E6
:1065B000014603480068FFF7CCFF03B05DF804FB19
:1065C000AC000020F8B50E461446054618B1036A23
:1065D0000BB9FFF781FEA369A360A3891A0701D550
:1065E000236943B92146284600F02AF818B14FF034
:1065F000FF373846F8BD23682269981A6369F6B2F6
:106600008342374605DC2146284600F019FE002863
:10661000EDD1A368013BA36023685A1C22601E7061
:106620006269431C9A4204D0A389DB07E1D50A2E94
:10663000DFD12146284600F003FE0028D9D0D6E756
:1066400038B5294B054618680C4618B1036A0BB9D2
:10665000FFF742FEB4F90C30190722D4DA0607D44A
:1066600009222A6043F04003A3814FF0FF3033E05A
:10667000580712D5616B41B104F14403994202D02D
:10668000284600F0E7F800236363A38923F024037E
:10669000A3810023636023692360A38943F0080377
:1066A000A38123694BB9A38903F42073B3F5007F59
:1066B00003D02146284600F011FEB4F90C3013F047
:1066C00001020AD00022A26062695242A2612269DC
:1066D00042B913F08000C5D138BD990758BF62692F
:1066E000A260F4E70020F7E7AC000020884210B574
:1066F00001EB020402D98442234607D8431EA1427B
:1067000008D011F8012B03F8012FF8E702440146E5
:106710008A4200D110BD13F8014D02F8014DF7E790
:1067200002440346934200D1704703F8011BF9E786
:1067300038B5064D0023044608462B60FBF757FB8F
:10674000431C02D12B6803B1236038BDD41700204D
:1067500038B5074D04460846114600222A601A46FD
:10676000FBF76CFB431C02D12B6803B1236038BDDF
:10677000D417002038B5074D0446084611460022BC
:106780002A601A46FBF716FB431C02D12B6803B1A3
:10679000236038BDD417002038B5064D00230446C9
:1067A00008462B60FBF758FB431C02D12B6803B152
:1067B000236038BDD417002038B5074D044608467D
:1067C000114600222A601A46FEF762FB431C02D1E2
:1067D0002B6803B1236038BDD4170020014B186823
:1067E000704700BFAC00002070B50D4D0D4C641B10
:1067F000A4100026A64209D10B4D0C4C00F002FE5D
:10680000641BA4100026A64205D170BD55F8043BB8
:1068100098470136EEE755F8043B98470136F2E712
:106820001C7D00081C7D00081C7D0008207D0008E0
:106830007047704770470A44914200F1FF3300D11E
:10684000704710B511F8014B03F8014F9142F9D18F
:1068500010BD000038B50546002941D051F8043C70
:106860000C1F002BB8BFE418FFF79EFC1D4A1368ED
:1068700033B9636014602846BDE83840FFF79ABC1E
:10688000A34208D9206821188B4201BF19685B68B0
:1068900009182160EDE71A465B680BB1A342FAD9EB
:1068A00011685018A0420BD120680144501883424F
:1068B0001160E0D118685B68536008441060DAE743
:1068C00002D90C232B60D6E7206821188B4204BF25
:1068D00019685B68636004BF091821605460CAE7E7
:1068E00038BD00BF941600202DE9F0478E681F4682
:1068F000BE420B6882460C4690462DD8B1F90C205A
:1069000012F4906F26D06569096905EB4505A3EB84
:10691000010905EBD5757B1C4B446D109D4238BFBA
:106920001D46530527D52946FFF7BEFB064660B333
:1069300021694A46FFF77FFFA38923F4906343F060
:106940008003A381266165614E44A5EB090526609D
:10695000A5603E46BE4200D93E46206832464146CA
:10696000FFF7C4FEA3689B1BA36023683344236026
:106970000020BDE8F0872A4600F00EFD06460028FC
:10698000E0D121695046FFF765FF0C23CAF80030BB
:10699000A38943F04003A3814FF0FF30E9E70000F3
:1069A0002DE9F04F98468B891B069DB007460D4692
:1069B000144610D50B6973B94021FFF775FB2860A9
:1069C000286130B90C233B604FF0FF301DB0BDE8AB
:1069D000F08F40236B610023099320238DF8293029
:1069E000CDF80C803023DFF89C818DF82A304FF0F1
:1069F000010923469A4613F8012B0AB1252AF9D139
:106A0000BAEB040B0BD05B46224629463846FFF70B
:106A10006BFF013000F0A780099A5A4409929AF856
:106A20000030002B00F09F8000234FF0FF32CDE9B3
:106A300005230AF1010A049307938DF853301A9342
:106A40005446052214F8011B4E48F9F7C1FB049A7D
:106A5000D8B9D00644BF20238DF85330110744BF66
:106A60002B238DF853309AF800302A2B15D0079A33
:106A7000544600204FF00A0C214611F8013B303BF0
:106A8000092B4BD9B0B1079214E0A0EB080309FA27
:106A900003F313430493A246D2E7039B191D1B681B
:106AA0000391002BBBBF5B4242F0020207930793A6
:106AB000B8BF049223782E2B0AD163782A2B32D1C7
:106AC000039B1A1D1B68039243EAE3730234059388
:106AD000DFF8C0A0217803225046F9F779FB38B1DE
:106AE000049BA0EB0A00402282401343013404932C
:106AF00014F8011B24488DF828100622F9F768FBCA
:106B0000002836D0214B1BBB039B073323F0070320
:106B100008330393099B334409936AE70CFB023261
:106B20000C460120A8E700230134059319464FF0D5
:106B30000A0C204610F8012B303A092A03D9002B01
:106B4000C6D00591C4E70CFB012104460123F0E700
:106B500003AB00932A460E4B04A93846AFF30080DE
:106B6000421C0646D6D1AB895B063FF52DAF09988E
:106B70002CE703AB00932A46054B04A9384600F0E6
:106B8000BBF9EDE7E07C0008EA7C000800000000AB
:106B9000E9680008E67C00089368013B002B10B40C
:106BA000936008DA9469A34201DB0A2903D15DF8F6
:106BB000044BFFF707BD1368581C10601970084696
:106BC0005DF8044B7047F8B506460F461446D518D5
:106BD000AC4201D1002007E014F8011B3A463046D0
:106BE000FFF7DAFF431CF3D1F8BD00002DE9F04FA9
:106BF0000D469DB014469846064618B1036A0BB977
:106C0000FFF76AFB6B6ED90705D4AB899A0502D4EE
:106C1000A86DFFF70EFEAB891B0701D52B699BB949
:106C200029463046FFF70CFD70B16B6EDC0704D5CA
:106C30004FF0FF301DB0BDE8F08FAB899805F7D459
:106C4000A86DFFF7F7FDF3E70023099320238DF8E4
:106C50002930CDF80C803023DFF8AC818DF82A3054
:106C60004FF0010923469A4613F8012B0AB1252A51
:106C7000F9D1BAEB040B0BD05B46224629463046CD
:106C8000FFF7A1FF013000F0A780099A5A4409924A
:106C90009AF80030002B00F09F8000234FF0FF3265
:106CA000CDE905230AF1010A049307938DF85330C7
:106CB0001A935446052214F8011B5348F9F788FA31
:106CC000049AD8B9D10644BF20238DF85330130756
:106CD00044BF2B238DF853309AF800302A2B15D05F
:106CE000079A544600204FF00A0C214611F8013B48
:106CF000303B092B4BD9B0B1079214E0A0EB08034D
:106D000009FA03F313430493A246D2E7039B191D28
:106D10001B680391002BBBBF5B4242F0020207934A
:106D20000793B8BF049223782E2B0AD163782A2BBD
:106D300032D1039B1A1D1B68039243EAE3730234AA
:106D40000593DFF8D4A0217803225046F9F740FAE2
:106D500038B1049BA0EB0A00402282401343013467
:106D6000049314F8011B29488DF828100622F9F71E
:106D70002FFA00283FD0264B1BBB039B073323F081
:106D8000070308330393099B3B4409936AE70CFB11
:106D900002320C460120A8E700230134059319466E
:106DA0004FF00A0C204610F8012B303A092A03D97B
:106DB000002BC6D00591C4E70CFB0121044601233A
:106DC000F0E703AB00932A46124B04A93046AFF319
:106DD00000800746781CD6D16B6ED90705D4AB89E5
:106DE0009A0502D4A86DFFF725FDAB895B063FF538
:106DF0001FAF09981EE703AB00932A46054B04A971
:106E0000304600F079F8E4E7E07C0008EA7C00080E
:106E100000000000C76B0008E67C00082DE9F04781
:106E2000164698468A680B69DDF820909342B8BFF1
:106E30001346336091F8432007460C460AB10133EC
:106E400033602368990642BF336802333360256894
:106E500015F0060506D104F1190AE36832689B1A99
:106E6000AB4226DC94F843302268003B18BF012374
:106E700092062BD404F1430241463846C8470130FC
:106E80001ED02368226903F00603042B02BFE568C5
:106E90003368ED1AA3680CBF25EAE5750025934217
:106EA000C4BF9B1AED1800261A34B5421AD100202F
:106EB00008E00123524641463846C847013003D115
:106EC0004FF0FF30BDE8F0870135C6E7E1185A1CE6
:106ED000302081F84300224494F8451082F8431092
:106EE0000233C7E70123224641463846C8470130EE
:106EF000E6D00136D9E700002DE9FF470F7E0C9E52
:106F0000782F914680460C469A4601F1430207D8F5
:106F1000622F0AD8002F00F0D280582F00F0B980DD
:106F200004F1420684F842703AE0A7F16303152B9E
:106F3000F6D801A151F823F0916F0008A56F000861
:106F4000216F0008216F0008216F0008216F0008E1
:106F5000A56F0008216F0008216F0008216F00084D
:106F6000216F0008A5700008CF6F00085F7000084F
:106F7000216F0008216F0008C7700008216F00080A
:106F8000CF6F0008216F0008216F000867700008AC
:106F900033681A1D1B68326004F1420684F84230DF
:106FA00001239DE033682068191D3160060601D574
:106FB0001D6803E04506FBD5B3F90050002D03DA48
:106FC0002D236D4284F8433059480A2311E021688B
:106FD0003368080653F8045B02D4490648BFADB2D3
:106FE0006F2F5348336014BF0A230823002184F80D
:106FF00043106668A660002EA2BF216821F004013C
:1070000021600DB9002E4BD01646B5FBF3F103FB02
:107010001157C75D06F8017D2F46BB420D46F4D9D6
:10702000082B0BD12368DF0708D5236961689942D3
:10703000DEBF302306F8013C06F1FF36921B2261C9
:10704000CDF800A04B4603AA21464046FFF7E6FED6
:1070500001304AD14FF0FF3004B0BDE8F08723681B
:1070600043F0200323603348782784F84570236871
:1070700031681F0651F8045B02D45F0648BFADB209
:107080003160D90744BF43F0200323601DB11023B2
:10709000ACE72748E9E7236823F020032360F6E7FD
:1070A0001646BDE7336825686169181D30602E06F5
:1070B0001B6801D5196002E06806FBD51980002322
:1070C00023611646BCE733681A1D32601E68626889
:1070D00000213046F9F77CF808B1801B60606368D6
:1070E0002361002384F84330AAE7236932464946E6
:1070F0004046D0470130ADD023689B0713D4E068E9
:10710000039B9842B8BF1846A6E70123324649467A
:107110004046D04701309DD00135E36803995B1AA2
:10712000AB42F2DCEBE7002504F11906F5E700BFFE
:10713000F17C0008027D0008B1F90C202DE9F04136
:10714000160705460C4654D44B68002B02DC0B6C2A
:10715000002B48DDE66A002E45D0002312F4805251
:107160002F68216A2B6030D0626DA389590705D53D
:107170006368D21A636B0BB1236CD21A0023E66AE0
:10718000216A2846B047431CA38906D129681D29D6
:107190002BD82A4A0A41D60727D400226260D90494
:1071A0002269226004D5421C01D12B6803B96065B5
:1071B000616B2F60B9B104F14403994202D02846B3
:1071C000FFF748FB002363630DE001232846B04727
:1071D0000246501CC9D12B68002BC6D01D2B01D0F4
:1071E000162B1ED12F60002022E043F040031BB27B
:1071F0001BE00F69002FF6D093070E6808BF4B699C
:107200000F6018BF0023A6EB07088B60B8F1000FD2
:10721000E9DD216AA66A43463A462846B047002877
:1072200008DCB4F90C3043F04003A3814FF0FF3089
:10723000BDE8F0810744A8EB0008E7E7FEFFBFDFE9
:1072400038B50B6905460C4613B90025284638BDEC
:1072500018B1036A0BB9FFF73FF8B4F90C30002BF3
:10726000F3D0626ED00704D4990502D4A06DFFF765
:10727000E0FA28462146FFF75FFF636EDA0705460E
:10728000E4D4A3899B05E1D4A06DFFF7D3FADDE731
:1072900070B50C46B1F90E10002996B015461E4681
:1072A0000DDAA38913F0800F4FF0000114BF4023C3
:1072B0004FF48063002031602B6016B070BD6A46C9
:1072C00000F048F80028ECDB019901F47041A1F5C9
:1072D0000053594259414FF48063EBE78B89F7B56E
:1072E0009D0706460C4607D504F14703236023613A
:1072F0000123636103B0F0BD01AB6A46FFF7C8FF2D
:10730000009F054639463046FEF7CEFE48B9B4F92F
:107310000C309A05EED423F0030343F00203A3815B
:10732000E2E7A389206043F08003A381019BC4E9C5
:1073300004075BB1B4F90E10304600F01DF828B117
:10734000A38923F0030343F00103A381A3891D4311
:10735000A581CFE738B5074D0023044608461146FE
:107360002B60FAF750FD431C02D12B6803B1236058
:1073700038BD00BFD417002038B5064D00230446A1
:1073800008462B60FAF74FFD431C02D12B6803B16E
:10739000236038BDD41700202DE9F0418046154602
:1073A0000C4621B9BDE8F0411146FEF77DBE2AB971
:1073B000FFF750FA00242046BDE8F08100F01AF8EB
:1073C0008542064602D8B5EB500FF4D82946404610
:1073D000FEF76AFE07460028ECD0B5422A46214651
:1073E00028BF3246FFF727FA21464046FFF732FA18
:1073F0003C46E0E751F8043C181F002BBCBF0B587B
:10740000C0187047F8B500BFF8BC08BC9E4670476E
:0C741000F8B500BFF8BC08BC9E467047F1
:10741C00D6B4D0D0C3FCC1EE3A20B6C1C8A1B3CC0F
:10742C00D0F25BB0E6B1BE25645D0000B6C1C8A168
:10743C00B3CCD0F2205B2530386C585D202564002D
:10744C00BDF8C8EBD5FDB3A3C4A3CABD00000000B2
:10745C00BDF8C8EBC9D5C2BCC4A3CABD00000000AE
:10746C00415050B0E6B1BE25645B2530386C585D98
:10747C003A20256400000000C9D5C2BC415050B36D
:10748C00CCD0F2CEC4BCFE282A2E62696E293A20DA
:10749C005B2530386C58202D202530386C585D20F9
:1074AC0025640000C9D5C2BCCAA7B0DC000000002E
:1074BC000A20BDF8C8EBC3FCC1EEC4A3CABD3A2078
:1074CC0023232323D6B8C1EEB4FAC2EB40405C723E
:1074DC005C6E0D00202020202D206A6170703A20F7
:1074EC00CCF8D7AAD3A6D3C30D00000020202020AF
:1074FC002D20726573743A20CFB5CDB3B8B4CEBB22
:10750C000D000000202020202D2062696E303A20D2
:10751C00B6C1C8A1CEC4BCFE0D00000020202020A6
:10752C002D2062696E313A20CEC4BCFEBFAACABC03
:10753C000D000000202020202D2062696E323A20A0
:10754C00CEC4BCFEBDE1CAF80D00000020202020F6
:10755C002D20646174313A20C5E4D6C3BFAACABCDD
:10756C000D000000202020202D20646174323A2070
:10757C00C5E4D6C3BDE1CAF80D00000020202020D0
:10758C002D20636F6E663A20D6D8D6C3B0E6B1BE56
:10759C000D000000202020202D20666C61733A2005
:1075AC00B0E6B1BEC9D5C2BC0D0000002020202021
:1075BC002D2063616E633A20C8A1CFFBC3FCC1EEE2
:1075CC000D0000000D0A0D003D3D3D3D3D3D3D3D96
:1075DC003D3D3D3D3D3D3D3D3D3D3D3D3D3D3D3DCF
:1075EC003D3D3D3D3D3D3D3D0D0000003D3D2020E0
:1075FC00202020202020202020202020202020207F
:10760C002020202020202020202020200D000000E1
:10761C003D3D20202020202020202020454F494F78
:10762C0054424F5820202020202020202020202091
:10763C000D0000003D3D2020202020202020202077
:10764C005620312E312E3430202020202020202096
:10765C00202020200D0000003D3D202020436F7095
:10766C0079726967687440656F626A656374203209
:10767C0030323020202020200D0000003D3D3D3DCB
:10768C003D3D3D3D3D3D3D3D3D3D3D3D3D3D3D3D1E
:10769C003D3D3D3D3D3D3D3D3D3D3D3D0D0A0D00DE
:1076AC0049415020C6F4B6AF00000000B5C8B4FD87
:1076BC00C3FCC1EEC4A3CABD2E2E00002E2E2E007C
:1076CC00B3F5CABCBBAFCAE4C8EBCFECD3A6000081
:1076DC00CEDEB7A8D6B4D0D0C3FCC1EE3A20CCF8DD
:1076EC00D7AAB5BD415050205B2530386C585D0091
:1076FC00D6B4D0D0C3FCC1EE3A20CCF8D7AAB5BDD5
:10770C0041505000D6B4D0D0C3FCC1EE3A20B6C123
:10771C00C8A1CEC4BCFE25645B2530386C585D3ADC
:10772C0020256400B6C1C8A1CEC4BCFE205B2530A8
:10773C00386C585D20256400CEDEB7A8D6B4D0D006
:10774C00C3FCC1EE3A20CEC4BCFEBFAACABC205BAF
:10775C002530386C585D0000D6B4D0D0C3FCC1EED7
:10776C003A20CEC4BCFEBFAACABC5BB0E6B1BE25F3
:10777C00645D00002323232362696E3140400000C6
:10778C00C7EBD1A1D4F1415050B3CCD0F2CEC4BC94
:10779C00FE282A2E62696E29203A2000CEDEB7A878
:1077AC00D6B4D0D0C3FCC1EE3A20CEC4BCFEBDE1F1
:1077BC00CAF8205B2530386C585D0000D6B4D0D0A8
:1077CC00C3FCC1EE3A20CEC4BCFEBDE1CAF85BB02E
:1077DC00E6B1BE25645D202564000000232323232D
:1077EC0062696E3240400000CEDEB7A8D6B4D0D06D
:1077FC00C3FCC1EE3A20C5E4D6C3BFAACABC205B09
:10780C002530386C585D0000D6B4D0D0C3FCC1EE26
:10781C003A20C5E4D6C3BFAACABC5BB0E6B1BE254C
:10782C00645D000023232323646174314040000015
:10783C00C7EBD1A1D4F1415050C5E4D6C3CEC4BCE2
:10784C00FE282A2E74787429203A2000CEDEB7A8A0
:10785C00D6B4D0D0C3FCC1EE3A20C5E4D6C3BDE14A
:10786C00CAF8205B2530386C585D0000D6B4D0D0F7
:10787C00C3FCC1EE3A20C5E4D6C3BDE1CAF85BB087
:10788C00E6B1BE25645D202564000000232323237C
:10789C006461743240400000D6B4D0D0C3FCC1EE59
:1078AC003A20D6D8D6C3C5E4D6C30000B0E6B1BEE4
:1078BC00BDBBBBBB3A202D3E20256400D6B4D0D036
:1078CC00C3FCC1EE3A20B0E6B1BEC9D5C2BC0000C3
:1078DC00B4A6C0ED415050B3CCD0F2CEC4BCFE28FF
:1078EC002A2E62696E29203A205B2530386C585D4F
:1078FC00202564202F20256400000000B4A6C0EDD4
:10790C00415050C5E4D6C3CAFDBEDD282A2E74787A
:10791C007429203A205B2530386C585D2025642072
:10792C002F20256400000000D6B4D0D0C3FCC1EEDB
:10793C003A20CFB5CDB3D6D8C6F40000D6B4D0D04B
:10794C00C3FCC1EE3A20C3FCC1EEC8A1CFFB0000C2
:10795C00B3F5CABCBBAFC3FCC1EECAE4C8EB0000B4
:10796C00C9E8D6C3C0A9D5B9CAE4C8EBC3FCC1EEFB
:10797C002025303858000000C3FCC1EEC9E8D6C33E
:10798C00B3ACB3F63A20253038580000C9E8D6C35A
:10799C00C4ACC8CFCAE4C8EBC3FCC1EE2025303858
:1079AC0058000000CAE4C8EBB9FDB6E0CEDED0A7A3
:1079BC00CAFDBEDD00000000D5FDB3A3C4A3CABD43
:1079CC0000000000D4CBD0D0C4A3CABD000000007E
:1079DC00C9D5C2BCC4A3CABD00000000C3FCC1EE23
:1079EC00D0D0C4A3CABD0000CEB4D6AAC3FCC1EE8D
:1079FC00B1EACAB600000000454F494F544130313E
:107A0C0025303258253032582530325825303258EE
:107A1C0025303258253032582530325825303258DE
:107A2C0025303258253032582530325825303258CE
:107A3C0000000000C9E8B1B8B1EACAB63A20257313
:107A4C0000000000B1A3B4E620466C6173682045C9
:107A5C006D20C5E4D6C35B253038585D203A20250F
:107A6C00732C20B5B1C7B0B0E6B1BE2564000000E0
:107A7C00BCD3D4D820466C61736820456D20C5E416
:107A8C00D6C35B253038585D203A2025732C20B5A1
:107A9C00B1C7B0B0E6B1BE2564000000B4B4BDA857
:107AAC0020466C61736820456D20C5E4D6C35B2508
:107ABC003038585D203A2025732C20B5B1C7B0B0B2
:107ACC00E6B1BE25640000005B253032642F253002
:107ADC00326420253032643A253032643A25303213
:107AEC00645D25730A0000005B253032642F25305D
:107AFC00326420253032643A253032643A253032F3
:107B0C00645D00003C253034643E20002530325842
:107B1C00200000002A2A2A2A204465627567204426
:107B2C004D41204572726F72000000004465627511
:107B3C006720444D4120BDD3CAD5CAFDBEDD205BB4
:107B4C0025645D0A00000000466C61736820436880
:107B5C0065636B20B4EDCEF33A203332CEBB00001C
:107B6C00466C617368205265616420B4EDCEF33AC3
:107B7C00203332CEBB000000466C61736820577214
:107B8C0069746520B4EDCEF33A203332CEBB0000DD
:107B9C00CCF8D7AAB5BD415050C7F8205B2530387A
:107BAC00585D202E2E2E202530386C5800000000F9
:107BBC00CEDED0A7B5C4415050C7F8000D0A0D0A4F
:107BCC002D2D2D2D2D2D2D2D2D2D2D2D2D2D2D2DD9
:107BDC0020CFB5CDB3D6D8C6F4202D2D2D2D2D2DDF
:107BEC002D2D2D2D2D2D2D2D2D2D0D0A0D0A0D0A82
:107BFC0000000000466C6173685B25645D3A2025CB
:107C0C00732C2053697A65203D2025644D2C20531C
:107C1C006563746F72203D2025640000466C6173AF
:107C2C00685B25645D3A20CEB4D6AA202530345842
:107C3C0000000000B3F5CABCBBAF20466C61736892
:107C4C00000000005732355120C8ABC6ACB2C1B3EE
:107C5C00FDCDEAB3C900000057323551B4EDCEF377
:107C6C00205B253038582F25645D3A20253032585A
:107C7C00202D20253032580054696D6572205374C4
:107C8C006F703A2025640D0A0000000054696D6580
:107C9C007220456E643A2025640D0A001028405865
:107CAC007088A0B80000000000000000010203046E
:107CBC0006070809000000000102030410284058C0
:107CCC007088A0B8102840587088A0B81028405868
:107CDC007088A0B8232D302B2000686C4C00656692
:107CEC006745464700303132333435363738394101
:107CFC004243444546003031323334353637383917
:087D0C0061626364656600001A
:087D1400BC84FF7F01000000A8
:047D1C00B5010008A5
:047D200091010008C5
:107D24000024F4001000000001000000FFFFFF1F0A
:107D340013EF0100573235513830000000000000C5
:107D44000000000000010000FFFF0F0014EF02001C
:107D540057323551313600000000000000000000A9
:107D640000020000FFFF1F0015EF040057323551D9
:107D74003332000000000000000000000004000096
:107D8400FFFF2F0016EF080057323551363400003C
:107D9400000000000000000000080000FFFF4F008A
:107DA40017EF10005732355131323800000000000F
:107DB4000000000000100000FFFF8F007F000000A3
:107DC400000000000300000098160020B00000200E
:107DD40000000000981600200017002068170020FB
:107DE400000000000000000000000000000000008F
:107DF400000000000000000000000000000000007F
:107E0400000000000000000000000000000000006E
:0C7E140000000000000000000000000062
:0400000508001EE9E8
:00000001FF
